{
  "contractName": "blockstudio",
  "abi": [
    {
      "inputs": [],
      "stateMutability": "nonpayable",
      "type": "constructor"
    },
    {
      "anonymous": false,
      "inputs": [
        {
          "indexed": false,
          "internalType": "uint256",
          "name": "songID",
          "type": "uint256"
        },
        {
          "indexed": false,
          "internalType": "string",
          "name": "songName",
          "type": "string"
        },
        {
          "indexed": false,
          "internalType": "string",
          "name": "artistName",
          "type": "string"
        },
        {
          "indexed": false,
          "internalType": "uint256",
          "name": "price",
          "type": "uint256"
        }
      ],
      "name": "songAdded",
      "type": "event"
    },
    {
      "anonymous": false,
      "inputs": [
        {
          "indexed": false,
          "internalType": "uint256",
          "name": "songID",
          "type": "uint256"
        },
        {
          "indexed": false,
          "internalType": "string",
          "name": "songName",
          "type": "string"
        },
        {
          "indexed": false,
          "internalType": "string",
          "name": "audienceName",
          "type": "string"
        },
        {
          "indexed": false,
          "internalType": "uint256",
          "name": "price",
          "type": "uint256"
        }
      ],
      "name": "songPurchased",
      "type": "event"
    },
    {
      "inputs": [],
      "name": "getNumSongs",
      "outputs": [
        {
          "internalType": "uint256",
          "name": "",
          "type": "uint256"
        }
      ],
      "stateMutability": "view",
      "type": "function",
      "constant": true
    },
    {
      "inputs": [],
      "name": "checkUser",
      "outputs": [
        {
          "internalType": "enum blockstudio.UserType",
          "name": "",
          "type": "uint8"
        }
      ],
      "stateMutability": "view",
      "type": "function",
      "constant": true
    },
    {
      "inputs": [
        {
          "internalType": "string",
          "name": "_name",
          "type": "string"
        }
      ],
      "name": "addNewArtist",
      "outputs": [],
      "stateMutability": "nonpayable",
      "type": "function"
    },
    {
      "inputs": [
        {
          "internalType": "string",
          "name": "_name",
          "type": "string"
        }
      ],
      "name": "addNewAudience",
      "outputs": [],
      "stateMutability": "nonpayable",
      "type": "function"
    },
    {
      "inputs": [],
      "name": "getAudienceDetails",
      "outputs": [
        {
          "internalType": "string",
          "name": "",
          "type": "string"
        },
        {
          "internalType": "uint256",
          "name": "",
          "type": "uint256"
        },
        {
          "internalType": "uint256[]",
          "name": "",
          "type": "uint256[]"
        }
      ],
      "stateMutability": "view",
      "type": "function",
      "constant": true
    },
    {
      "inputs": [],
      "name": "getArtistDetails",
      "outputs": [
        {
          "internalType": "string",
          "name": "",
          "type": "string"
        },
        {
          "internalType": "uint256",
          "name": "",
          "type": "uint256"
        },
        {
          "internalType": "uint256",
          "name": "",
          "type": "uint256"
        },
        {
          "internalType": "uint256[]",
          "name": "",
          "type": "uint256[]"
        }
      ],
      "stateMutability": "view",
      "type": "function",
      "constant": true
    },
    {
      "inputs": [
        {
          "internalType": "string",
          "name": "_name",
          "type": "string"
        },
        {
          "internalType": "string",
          "name": "_genre",
          "type": "string"
        },
        {
          "internalType": "string",
          "name": "_hash",
          "type": "string"
        },
        {
          "internalType": "uint256",
          "name": "_price",
          "type": "uint256"
        }
      ],
      "name": "addSong",
      "outputs": [],
      "stateMutability": "nonpayable",
      "type": "function"
    },
    {
      "inputs": [
        {
          "internalType": "uint256",
          "name": "_songID",
          "type": "uint256"
        }
      ],
      "name": "buySong",
      "outputs": [],
      "stateMutability": "payable",
      "type": "function",
      "payable": true
    },
    {
      "inputs": [
        {
          "internalType": "uint256",
          "name": "_songID",
          "type": "uint256"
        }
      ],
      "name": "getSongDetails",
      "outputs": [
        {
          "internalType": "string",
          "name": "",
          "type": "string"
        },
        {
          "internalType": "string",
          "name": "",
          "type": "string"
        },
        {
          "internalType": "string",
          "name": "",
          "type": "string"
        },
        {
          "internalType": "string",
          "name": "",
          "type": "string"
        },
        {
          "internalType": "uint256",
          "name": "",
          "type": "uint256"
        },
        {
          "internalType": "uint256",
          "name": "",
          "type": "uint256"
        }
      ],
      "stateMutability": "view",
      "type": "function",
      "constant": true
    }
  ],
  "bytecode": "0x608060405234801561001057600080fd5b5060008081905550600060018190555060006002819055506121d1806100376000396000f3fe6080604052600436106100865760003560e01c806377822fc21161005957806377822fc2146101245780637f7a451014610166578063bddff76814610194578063c1562547146101c1578063f29b4165146101ec57610086565b80630c58d5b11461008b5780631a0cd343146100b657806342490c4b146100df578063606a017514610108575b600080fd5b34801561009757600080fd5b506100a0610215565b6040516100ad919061171f565b60405180910390f35b3480156100c257600080fd5b506100dd60048036038101906100d89190611894565b61021f565b005b3480156100eb57600080fd5b5061010660048036038101906101019190611894565b61030b565b005b610122600480360381019061011d9190611909565b610449565b005b34801561013057600080fd5b5061014b60048036038101906101469190611909565b610af0565b60405161015d969594939291906119be565b60405180910390f35b34801561017257600080fd5b5061017b610dc1565b60405161018b9493929190611af9565b60405180910390f35b3480156101a057600080fd5b506101a9610fbe565b6040516101b893929190611b4c565b60405180910390f35b3480156101cd57600080fd5b506101d6611174565b6040516101e39190611c08565b60405180910390f35b3480156101f857600080fd5b50610213600480360381019061020e9190611c23565b6111c8565b005b6000600254905090565b60016000808282546102319190611d0d565b925050819055506000600560003373ffffffffffffffffffffffffffffffffffffffff1673ffffffffffffffffffffffffffffffffffffffff16815260200190815260200160002090508181600001908051906020019061029392919061159b565b5060005481600101819055506002600360003373ffffffffffffffffffffffffffffffffffffffff1673ffffffffffffffffffffffffffffffffffffffff16815260200190815260200160002060006101000a81548160ff0219169083600281111561030257610301611b91565b5b02179055505050565b600180600082825461031d9190611d0d565b9250508190555061032c611621565b818160000181905250600154816020018181525050600081604001818152505080600460003373ffffffffffffffffffffffffffffffffffffffff1673ffffffffffffffffffffffffffffffffffffffff16815260200190815260200160002060008201518160000190805190602001906103a892919061159b565b50602082015181600101556040820151816002015560608201518160030190805190602001906103d9929190611649565b509050506001600360003373ffffffffffffffffffffffffffffffffffffffff1673ffffffffffffffffffffffffffffffffffffffff16815260200190815260200160002060006101000a81548160ff021916908360028111156104405761043f611b91565b5b02179055505050565b60028081111561045c5761045b611b91565b5b600360003373ffffffffffffffffffffffffffffffffffffffff1673ffffffffffffffffffffffffffffffffffffffff16815260200190815260200160002060009054906101000a900460ff1660028111156104bb576104ba611b91565b5b146104fb576040517f08c379a00000000000000000000000000000000000000000000000000000000081526004016104f290611daf565b60405180910390fd5b600560003373ffffffffffffffffffffffffffffffffffffffff1673ffffffffffffffffffffffffffffffffffffffff168152602001908152602001600020600301600082815260200190815260200160002060009054906101000a900460ff161561059c576040517f08c379a000000000000000000000000000000000000000000000000000000000815260040161059390611e1b565b60405180910390fd5b6000600660008381526020019081526020016000206040518060e00160405290816000820180546105cc90611e6a565b80601f01602080910402602001604051908101604052809291908181526020018280546105f890611e6a565b80156106455780601f1061061a57610100808354040283529160200191610645565b820191906000526020600020905b81548152906001019060200180831161062857829003601f168201915b5050505050815260200160018201805461065e90611e6a565b80601f016020809104026020016040519081016040528092919081815260200182805461068a90611e6a565b80156106d75780601f106106ac576101008083540402835291602001916106d7565b820191906000526020600020905b8154815290600101906020018083116106ba57829003601f168201915b505050505081526020016002820180546106f090611e6a565b80601f016020809104026020016040519081016040528092919081815260200182805461071c90611e6a565b80156107695780601f1061073e57610100808354040283529160200191610769565b820191906000526020600020905b81548152906001019060200180831161074c57829003601f168201915b5050505050815260200160038201805461078290611e6a565b80601f01602080910402602001604051908101604052809291908181526020018280546107ae90611e6a565b80156107fb5780601f106107d0576101008083540402835291602001916107fb565b820191906000526020600020905b8154815290600101906020018083116107de57829003601f168201915b5050505050815260200160048201548152602001600582015481526020016006820160009054906101000a900473ffffffffffffffffffffffffffffffffffffffff1673ffffffffffffffffffffffffffffffffffffffff1673ffffffffffffffffffffffffffffffffffffffff1681525050905060018160a001516108819190611e9c565b34146108c2576040517f08c379a00000000000000000000000000000000000000000000000000000000081526004016108b990611f68565b60405180910390fd5b343373ffffffffffffffffffffffffffffffffffffffff16311161091b576040517f08c379a000000000000000000000000000000000000000000000000000000000815260040161091290611fd4565b60405180910390fd5b8060c0015173ffffffffffffffffffffffffffffffffffffffff166108fc349081150290604051600060405180830381858888f19350505050158015610965573d6000803e3d6000fd5b50600160076000848152602001908152602001600020600082825461098a9190611d0d565b92505081905550600560003373ffffffffffffffffffffffffffffffffffffffff1673ffffffffffffffffffffffffffffffffffffffff1681526020019081526020016000206002018290806001815401808255809150506001900390600052602060002001600090919091909150556001600560003373ffffffffffffffffffffffffffffffffffffffff1673ffffffffffffffffffffffffffffffffffffffff168152602001908152602001600020600301600084815260200190815260200160002060006101000a81548160ff0219169083151502179055507f4d5d3c0b738fd8f4b26fa11966a64c4b072cb5837aadaf02808df71f883a5d5181608001518260000151600560003373ffffffffffffffffffffffffffffffffffffffff1673ffffffffffffffffffffffffffffffffffffffff16815260200190815260200160002060000134604051610ae49493929190612089565b60405180910390a15050565b6060806060806000806006600088815260200190815260200160002060000160066000898152602001908152602001600020600101600660008a8152602001908152602001600020600201600660008b8152602001908152602001600020600301600660008c815260200190815260200160002060050154600760008d815260200190815260200160002054858054610b8890611e6a565b80601f0160208091040260200160405190810160405280929190818152602001828054610bb490611e6a565b8015610c015780601f10610bd657610100808354040283529160200191610c01565b820191906000526020600020905b815481529060010190602001808311610be457829003601f168201915b50505050509550848054610c1490611e6a565b80601f0160208091040260200160405190810160405280929190818152602001828054610c4090611e6a565b8015610c8d5780601f10610c6257610100808354040283529160200191610c8d565b820191906000526020600020905b815481529060010190602001808311610c7057829003601f168201915b50505050509450838054610ca090611e6a565b80601f0160208091040260200160405190810160405280929190818152602001828054610ccc90611e6a565b8015610d195780601f10610cee57610100808354040283529160200191610d19565b820191906000526020600020905b815481529060010190602001808311610cfc57829003601f168201915b50505050509350828054610d2c90611e6a565b80601f0160208091040260200160405190810160405280929190818152602001828054610d5890611e6a565b8015610da55780601f10610d7a57610100808354040283529160200191610da5565b820191906000526020600020905b815481529060010190602001808311610d8857829003601f168201915b5050505050925095509550955095509550955091939550919395565b60606000806060600460003373ffffffffffffffffffffffffffffffffffffffff1673ffffffffffffffffffffffffffffffffffffffff168152602001908152602001600020600001600460003373ffffffffffffffffffffffffffffffffffffffff1673ffffffffffffffffffffffffffffffffffffffff16815260200190815260200160002060010154600460003373ffffffffffffffffffffffffffffffffffffffff1673ffffffffffffffffffffffffffffffffffffffff16815260200190815260200160002060020154600460003373ffffffffffffffffffffffffffffffffffffffff1673ffffffffffffffffffffffffffffffffffffffff168152602001908152602001600020600301838054610ede90611e6a565b80601f0160208091040260200160405190810160405280929190818152602001828054610f0a90611e6a565b8015610f575780601f10610f2c57610100808354040283529160200191610f57565b820191906000526020600020905b815481529060010190602001808311610f3a57829003601f168201915b5050505050935080805480602002602001604051908101604052809291908181526020018280548015610fa957602002820191906000526020600020905b815481526020019060010190808311610f95575b50505050509050935093509350935090919293565b606060006060600560003373ffffffffffffffffffffffffffffffffffffffff1673ffffffffffffffffffffffffffffffffffffffff168152602001908152602001600020600001600560003373ffffffffffffffffffffffffffffffffffffffff1673ffffffffffffffffffffffffffffffffffffffff16815260200190815260200160002060010154600560003373ffffffffffffffffffffffffffffffffffffffff1673ffffffffffffffffffffffffffffffffffffffff16815260200190815260200160002060020182805461109790611e6a565b80601f01602080910402602001604051908101604052809291908181526020018280546110c390611e6a565b80156111105780601f106110e557610100808354040283529160200191611110565b820191906000526020600020905b8154815290600101906020018083116110f357829003601f168201915b505050505092508080548060200260200160405190810160405280929190818152602001828054801561116257602002820191906000526020600020905b81548152602001906001019080831161114e575b50505050509050925092509250909192565b6000600360003373ffffffffffffffffffffffffffffffffffffffff1673ffffffffffffffffffffffffffffffffffffffff16815260200190815260200160002060009054906101000a900460ff16905090565b600160028111156111dc576111db611b91565b5b600360003373ffffffffffffffffffffffffffffffffffffffff1673ffffffffffffffffffffffffffffffffffffffff16815260200190815260200160002060009054906101000a900460ff16600281111561123b5761123a611b91565b5b1461127b576040517f08c379a000000000000000000000000000000000000000000000000000000000815260040161127290612128565b60405180910390fd5b60016002600082825461128e9190611d0d565b9250508190555061129d611696565b600254816080018181525050848160000181905250600460003373ffffffffffffffffffffffffffffffffffffffff1673ffffffffffffffffffffffffffffffffffffffff16815260200190815260200160002060000180546112ff90611e6a565b80601f016020809104026020016040519081016040528092919081815260200182805461132b90611e6a565b80156113785780601f1061134d57610100808354040283529160200191611378565b820191906000526020600020905b81548152906001019060200180831161135b57829003601f168201915b50505050508160200181905250838160400181905250828160600181905250818160a0018181525050338160c0019073ffffffffffffffffffffffffffffffffffffffff16908173ffffffffffffffffffffffffffffffffffffffff168152505060006007600060025481526020019081526020016000208190555080600660006002548152602001908152602001600020600082015181600001908051906020019061142692919061159b565b50602082015181600101908051906020019061144392919061159b565b50604082015181600201908051906020019061146092919061159b565b50606082015181600301908051906020019061147d92919061159b565b506080820151816004015560a0820151816005015560c08201518160060160006101000a81548173ffffffffffffffffffffffffffffffffffffffff021916908373ffffffffffffffffffffffffffffffffffffffff160217905550905050600460003373ffffffffffffffffffffffffffffffffffffffff1673ffffffffffffffffffffffffffffffffffffffff16815260200190815260200160002060030160025490806001815401808255809150506001900390600052602060002001600090919091909150557f8c6d5283b06a4f84805865678e0a51043ab4788bdd609db7c5cbe4c6fce5c97f8160800151826000015183602001518460a0015160405161158c9493929190612148565b60405180910390a15050505050565b8280546115a790611e6a565b90600052602060002090601f0160209004810192826115c95760008555611610565b82601f106115e257805160ff1916838001178555611610565b82800160010185558215611610579182015b8281111561160f5782518255916020019190600101906115f4565b5b50905061161d91906116e9565b5090565b6040518060800160405280606081526020016000815260200160008152602001606081525090565b828054828255906000526020600020908101928215611685579160200282015b82811115611684578251825591602001919060010190611669565b5b50905061169291906116e9565b5090565b6040518060e00160405280606081526020016060815260200160608152602001606081526020016000815260200160008152602001600073ffffffffffffffffffffffffffffffffffffffff1681525090565b5b808211156117025760008160009055506001016116ea565b5090565b6000819050919050565b61171981611706565b82525050565b60006020820190506117346000830184611710565b92915050565b6000604051905090565b600080fd5b600080fd5b600080fd5b600080fd5b6000601f19601f8301169050919050565b7f4e487b7100000000000000000000000000000000000000000000000000000000600052604160045260246000fd5b6117a182611758565b810181811067ffffffffffffffff821117156117c0576117bf611769565b5b80604052505050565b60006117d361173a565b90506117df8282611798565b919050565b600067ffffffffffffffff8211156117ff576117fe611769565b5b61180882611758565b9050602081019050919050565b82818337600083830152505050565b6000611837611832846117e4565b6117c9565b90508281526020810184848401111561185357611852611753565b5b61185e848285611815565b509392505050565b600082601f83011261187b5761187a61174e565b5b813561188b848260208601611824565b91505092915050565b6000602082840312156118aa576118a9611744565b5b600082013567ffffffffffffffff8111156118c8576118c7611749565b5b6118d484828501611866565b91505092915050565b6118e681611706565b81146118f157600080fd5b50565b600081359050611903816118dd565b92915050565b60006020828403121561191f5761191e611744565b5b600061192d848285016118f4565b91505092915050565b600081519050919050565b600082825260208201905092915050565b60005b83811015611970578082015181840152602081019050611955565b8381111561197f576000848401525b50505050565b600061199082611936565b61199a8185611941565b93506119aa818560208601611952565b6119b381611758565b840191505092915050565b600060c08201905081810360008301526119d88189611985565b905081810360208301526119ec8188611985565b90508181036040830152611a008187611985565b90508181036060830152611a148186611985565b9050611a236080830185611710565b611a3060a0830184611710565b979650505050505050565b600081519050919050565b600082825260208201905092915050565b6000819050602082019050919050565b611a7081611706565b82525050565b6000611a828383611a67565b60208301905092915050565b6000602082019050919050565b6000611aa682611a3b565b611ab08185611a46565b9350611abb83611a57565b8060005b83811015611aec578151611ad38882611a76565b9750611ade83611a8e565b925050600181019050611abf565b5085935050505092915050565b60006080820190508181036000830152611b138187611985565b9050611b226020830186611710565b611b2f6040830185611710565b8181036060830152611b418184611a9b565b905095945050505050565b60006060820190508181036000830152611b668186611985565b9050611b756020830185611710565b8181036040830152611b878184611a9b565b9050949350505050565b7f4e487b7100000000000000000000000000000000000000000000000000000000600052602160045260246000fd5b60038110611bd157611bd0611b91565b5b50565b6000819050611be282611bc0565b919050565b6000611bf282611bd4565b9050919050565b611c0281611be7565b82525050565b6000602082019050611c1d6000830184611bf9565b92915050565b60008060008060808587031215611c3d57611c3c611744565b5b600085013567ffffffffffffffff811115611c5b57611c5a611749565b5b611c6787828801611866565b945050602085013567ffffffffffffffff811115611c8857611c87611749565b5b611c9487828801611866565b935050604085013567ffffffffffffffff811115611cb557611cb4611749565b5b611cc187828801611866565b9250506060611cd2878288016118f4565b91505092959194509250565b7f4e487b7100000000000000000000000000000000000000000000000000000000600052601160045260246000fd5b6000611d1882611706565b9150611d2383611706565b9250827fffffffffffffffffffffffffffffffffffffffffffffffffffffffffffffffff03821115611d5857611d57611cde565b5b828201905092915050565b7f4e6f7420616e2061756469656e6365206d656d6265722e000000000000000000600082015250565b6000611d99601783611941565b9150611da482611d63565b602082019050919050565b60006020820190508181036000830152611dc881611d8c565b9050919050565b7f43616e6e6f74206275792074686520736f6e672074776963652e000000000000600082015250565b6000611e05601a83611941565b9150611e1082611dcf565b602082019050919050565b60006020820190508181036000830152611e3481611df8565b9050919050565b7f4e487b7100000000000000000000000000000000000000000000000000000000600052602260045260246000fd5b60006002820490506001821680611e8257607f821691505b60208210811415611e9657611e95611e3b565b5b50919050565b6000611ea782611706565b9150611eb283611706565b9250817fffffffffffffffffffffffffffffffffffffffffffffffffffffffffffffffff0483118215151615611eeb57611eea611cde565b5b828202905092915050565b7f416d6f756e7420706179656420646f6573206e6f74206d61746368207072696360008201527f65206f662074686520736f6e672e000000000000000000000000000000000000602082015250565b6000611f52602e83611941565b9150611f5d82611ef6565b604082019050919050565b60006020820190508181036000830152611f8181611f45565b9050919050565b7f496e73756666696369656e742062616c616e63652e0000000000000000000000600082015250565b6000611fbe601583611941565b9150611fc982611f88565b602082019050919050565b60006020820190508181036000830152611fed81611fb1565b9050919050565b60008190508160005260206000209050919050565b6000815461201681611e6a565b6120208186611941565b9450600182166000811461203b576001811461204d57612080565b60ff1983168652602086019350612080565b61205685611ff4565b60005b8381101561207857815481890152600182019150602081019050612059565b808801955050505b50505092915050565b600060808201905061209e6000830187611710565b81810360208301526120b08186611985565b905081810360408301526120c48185612009565b90506120d36060830184611710565b95945050505050565b7f4e6f7420616e206172746973742e000000000000000000000000000000000000600082015250565b6000612112600e83611941565b915061211d826120dc565b602082019050919050565b6000602082019050818103600083015261214181612105565b9050919050565b600060808201905061215d6000830187611710565b818103602083015261216f8186611985565b905081810360408301526121838185611985565b90506121926060830184611710565b9594505050505056fea26469706673582212202081f87dd4897efddd143c12b97e84accde900319d86560c416b3569fb5abd4d64736f6c63430008090033",
  "immutableReferences": {},
  "source": "pragma solidity >=0.7.0 <0.9.0;\r\n\r\ncontract blockstudio {\r\n    uint audienceIDTracker;\r\n    uint artistIDTracker;\r\n    uint songIDTracker;\r\n    \r\n    enum UserType {UNDEFINED, ARTIST, AUDIENCE}\r\n    \r\n    struct Artist {\r\n        string name;\r\n        uint artistID;\r\n        uint rating;\r\n        uint[] songsPublished;\r\n    }\r\n    \r\n    struct Audience {\r\n        string name;\r\n        uint audienceID;\r\n        uint[] songsPurchased;\r\n        mapping(uint => bool) isSongPurchased;\r\n    }\r\n    \r\n    struct Song {\r\n        string songName;\r\n        string artistName;\r\n        string genre;\r\n        string hash;\r\n        uint songID;\r\n        uint price;\r\n        address payable artistAddress;\r\n    }\r\n    \r\n    mapping (address => UserType) identifyUser;\r\n    mapping (address => Artist) allArtists;\r\n    mapping (address => Audience) allAudience;\r\n    mapping (uint => Song) allSongs;\r\n    mapping (uint => uint) timesSongPurchased;\r\n\r\n    \r\n    constructor() {\r\n        audienceIDTracker = 0;\r\n        artistIDTracker = 0;\r\n        songIDTracker = 0;\r\n    }\r\n    \r\n    function getNumSongs() public view returns(uint) {\r\n        return songIDTracker;\r\n    }\r\n\r\n    function checkUser() public view returns(UserType) {\r\n        return identifyUser[msg.sender];\r\n    }\r\n    \r\n    function addNewArtist(string memory _name) public {\r\n        artistIDTracker += 1;\r\n        \r\n        Artist memory newArtist;\r\n        newArtist.name = _name;\r\n        newArtist.artistID = artistIDTracker;\r\n        newArtist.rating = 0;\r\n        \r\n        allArtists[msg.sender] = newArtist;\r\n        identifyUser[msg.sender] = UserType.ARTIST;\r\n    }\r\n    \r\n    function addNewAudience(string memory _name) public {\r\n        audienceIDTracker += 1;\r\n        \r\n        Audience storage newAudience = allAudience[msg.sender];\r\n        newAudience.name = _name;\r\n        newAudience.audienceID = audienceIDTracker;\r\n\r\n        identifyUser[msg.sender] = UserType.AUDIENCE;\r\n    }\r\n    \r\n    function getAudienceDetails() public view returns(string memory, uint, uint[] memory){\r\n        return (allAudience[msg.sender].name, allAudience[msg.sender].audienceID, allAudience[msg.sender].songsPurchased);\r\n    }\r\n    \r\n    function getArtistDetails() public view returns(string memory, uint, uint, uint[] memory){\r\n        return (allArtists[msg.sender].name, \r\n            allArtists[msg.sender].artistID, \r\n            allArtists[msg.sender].rating, \r\n            allArtists[msg.sender].songsPublished\r\n        );   \r\n    }\r\n    \r\n    event songAdded (\r\n        uint songID,\r\n        string songName,\r\n        string artistName,\r\n        uint price\r\n    );\r\n    \r\n    function addSong(string memory _name, string memory _genre, string memory _hash, uint _price) public {\r\n        require(identifyUser[msg.sender] == UserType.ARTIST, \"Not an artist.\");\r\n        \r\n        songIDTracker += 1;\r\n        \r\n        Song memory newSong;\r\n        newSong.songID = songIDTracker;\r\n        newSong.songName = _name;\r\n        newSong.artistName = allArtists[msg.sender].name;\r\n        newSong.genre = _genre;\r\n        newSong.hash = _hash;\r\n        newSong.price = _price;\r\n        newSong.artistAddress = payable(msg.sender);\r\n\r\n        timesSongPurchased[songIDTracker] = 0;\r\n\r\n        allSongs[songIDTracker] = newSong;\r\n        allArtists[msg.sender].songsPublished.push(songIDTracker);\r\n        \r\n        emit songAdded(newSong.songID, newSong.songName, newSong.artistName, newSong.price);\r\n    }\r\n    \r\n    event songPurchased (\r\n        uint songID,\r\n        string songName,\r\n        string audienceName,\r\n        uint price\r\n    );\r\n    \r\n    function buySong(uint _songID) public payable {\r\n        require(identifyUser[msg.sender] == UserType.AUDIENCE, \"Not an audience member.\");\r\n        require(!allAudience[msg.sender].isSongPurchased[_songID], \"Cannot buy the song twice.\");\r\n        \r\n        Song memory curSong = allSongs[_songID];\r\n        \r\n        require(msg.value == (curSong.price * 1 wei), \"Amount payed does not match price of the song.\");\r\n        require(msg.sender.balance > msg.value, \"Insufficient balance.\");\r\n\r\n        curSong.artistAddress.transfer(msg.value);\r\n        timesSongPurchased[_songID] += 1;\r\n        \r\n        allAudience[msg.sender].songsPurchased.push(_songID);\r\n        allAudience[msg.sender].isSongPurchased[_songID] = true;\r\n        \r\n        emit songPurchased(curSong.songID, curSong.songName, allAudience[msg.sender].name, msg.value);\r\n    }\r\n    \r\n    function getSongDetails(uint _songID) public view returns(string memory, string memory, string memory, string memory, uint, uint){\r\n        return (allSongs[_songID].songName, \r\n            allSongs[_songID].artistName, \r\n            allSongs[_songID].genre, \r\n            allSongs[_songID].hash,\r\n            allSongs[_songID].price,\r\n            timesSongPurchased[_songID]\r\n        );\r\n    }\r\n\r\n    \r\n}",
  "sourcePath": "C:\\Users\\kalra\\Desktop\\college\\sem7\\IBC\\blockstudio\\App\\contracts\\blockstudio.sol",
  "compiler": {
    "name": "solc",
    "version": "0.8.9+commit.e5eed63a.Emscripten.clang"
  },
  "schemaVersion": "3.4.3",
  "updatedAt": "2021-12-14T11:02:35.447Z",
  "networkType": "ethereum",
  "devdoc": {
    "kind": "dev",
    "methods": {},
    "version": 1
  },
  "userdoc": {
    "kind": "user",
    "methods": {},
    "version": 1
  }
}