{
  "contractName": "blockstudio",
  "abi": [
    {
      "inputs": [],
      "stateMutability": "nonpayable",
      "type": "constructor"
    },
    {
      "anonymous": false,
      "inputs": [
        {
          "indexed": false,
          "internalType": "string",
          "name": "artistName",
          "type": "string"
        },
        {
          "indexed": false,
          "internalType": "string",
          "name": "audienceName",
          "type": "string"
        },
        {
          "indexed": false,
          "internalType": "uint256",
          "name": "amount",
          "type": "uint256"
        }
      ],
      "name": "artistDonated",
      "type": "event"
    },
    {
      "anonymous": false,
      "inputs": [
        {
          "indexed": false,
          "internalType": "uint256",
          "name": "songID",
          "type": "uint256"
        },
        {
          "indexed": false,
          "internalType": "string",
          "name": "songName",
          "type": "string"
        },
        {
          "indexed": false,
          "internalType": "string",
          "name": "artistName",
          "type": "string"
        },
        {
          "indexed": false,
          "internalType": "uint256",
          "name": "price",
          "type": "uint256"
        }
      ],
      "name": "songAdded",
      "type": "event"
    },
    {
      "anonymous": false,
      "inputs": [
        {
          "indexed": false,
          "internalType": "uint256",
          "name": "songID",
          "type": "uint256"
        },
        {
          "indexed": false,
          "internalType": "string",
          "name": "songName",
          "type": "string"
        },
        {
          "indexed": false,
          "internalType": "string",
          "name": "audienceName",
          "type": "string"
        },
        {
          "indexed": false,
          "internalType": "uint256",
          "name": "price",
          "type": "uint256"
        }
      ],
      "name": "songPurchased",
      "type": "event"
    },
    {
      "inputs": [],
      "name": "getNumSongs",
      "outputs": [
        {
          "internalType": "uint256",
          "name": "",
          "type": "uint256"
        }
      ],
      "stateMutability": "view",
      "type": "function",
      "constant": true
    },
    {
      "inputs": [],
      "name": "checkUser",
      "outputs": [
        {
          "internalType": "enum blockstudio.UserType",
          "name": "",
          "type": "uint8"
        }
      ],
      "stateMutability": "view",
      "type": "function",
      "constant": true
    },
    {
      "inputs": [
        {
          "internalType": "string",
          "name": "_name",
          "type": "string"
        }
      ],
      "name": "addNewArtist",
      "outputs": [],
      "stateMutability": "nonpayable",
      "type": "function"
    },
    {
      "inputs": [
        {
          "internalType": "string",
          "name": "_name",
          "type": "string"
        }
      ],
      "name": "addNewAudience",
      "outputs": [],
      "stateMutability": "nonpayable",
      "type": "function"
    },
    {
      "inputs": [],
      "name": "getAudienceDetails",
      "outputs": [
        {
          "internalType": "string",
          "name": "",
          "type": "string"
        },
        {
          "internalType": "uint256",
          "name": "",
          "type": "uint256"
        },
        {
          "internalType": "uint256[]",
          "name": "",
          "type": "uint256[]"
        }
      ],
      "stateMutability": "view",
      "type": "function",
      "constant": true
    },
    {
      "inputs": [],
      "name": "getArtistDetails",
      "outputs": [
        {
          "internalType": "string",
          "name": "",
          "type": "string"
        },
        {
          "internalType": "uint256",
          "name": "",
          "type": "uint256"
        },
        {
          "internalType": "uint256[]",
          "name": "",
          "type": "uint256[]"
        }
      ],
      "stateMutability": "view",
      "type": "function",
      "constant": true
    },
    {
      "inputs": [
        {
          "internalType": "string",
          "name": "_name",
          "type": "string"
        },
        {
          "internalType": "string",
          "name": "_genre",
          "type": "string"
        },
        {
          "internalType": "string",
          "name": "_hash",
          "type": "string"
        },
        {
          "internalType": "uint256",
          "name": "_price",
          "type": "uint256"
        }
      ],
      "name": "addSong",
      "outputs": [],
      "stateMutability": "nonpayable",
      "type": "function"
    },
    {
      "inputs": [
        {
          "internalType": "uint256",
          "name": "_songID",
          "type": "uint256"
        }
      ],
      "name": "buySong",
      "outputs": [],
      "stateMutability": "payable",
      "type": "function",
      "payable": true
    },
    {
      "inputs": [
        {
          "internalType": "string",
          "name": "artistName",
          "type": "string"
        }
      ],
      "name": "donateArtist",
      "outputs": [],
      "stateMutability": "payable",
      "type": "function",
      "payable": true
    },
    {
      "inputs": [
        {
          "internalType": "uint256",
          "name": "_songID",
          "type": "uint256"
        }
      ],
      "name": "getSongDetails",
      "outputs": [
        {
          "internalType": "string",
          "name": "",
          "type": "string"
        },
        {
          "internalType": "string",
          "name": "",
          "type": "string"
        },
        {
          "internalType": "string",
          "name": "",
          "type": "string"
        },
        {
          "internalType": "string",
          "name": "",
          "type": "string"
        },
        {
          "internalType": "uint256",
          "name": "",
          "type": "uint256"
        },
        {
          "internalType": "uint256",
          "name": "",
          "type": "uint256"
        }
      ],
      "stateMutability": "view",
      "type": "function",
      "constant": true
    }
  ],
  "bytecode": "0x608060405234801561001057600080fd5b50600080819055506000600181905550600060028190555061257a806100376000396000f3fe6080604052600436106100915760003560e01c80637f7a4510116100595780637f7a451014610171578063bddff7681461019e578063c1562547146101cb578063dc4b0291146101f6578063f29b41651461021257610091565b80630c58d5b1146100965780631a0cd343146100c157806342490c4b146100ea578063606a01751461011357806377822fc21461012f575b600080fd5b3480156100a257600080fd5b506100ab61023b565b6040516100b891906119f1565b60405180910390f35b3480156100cd57600080fd5b506100e860048036038101906100e39190611b66565b610245565b005b3480156100f657600080fd5b50610111600480360381019061010c9190611b66565b610331565b005b61012d60048036038101906101289190611bdb565b6104b7565b005b34801561013b57600080fd5b5061015660048036038101906101519190611bdb565b610b5e565b60405161016896959493929190611c90565b60405180910390f35b34801561017d57600080fd5b50610186610e2f565b60405161019593929190611dcb565b60405180910390f35b3480156101aa57600080fd5b506101b3610fe5565b6040516101c293929190611dcb565b60405180910390f35b3480156101d757600080fd5b506101e061119b565b6040516101ed9190611e87565b60405180910390f35b610210600480360381019061020b9190611b66565b6111ef565b005b34801561021e57600080fd5b5061023960048036038101906102349190611ea2565b6113fe565b005b6000600254905090565b60016000808282546102579190611f8c565b925050819055506000600560003373ffffffffffffffffffffffffffffffffffffffff1673ffffffffffffffffffffffffffffffffffffffff1681526020019081526020016000209050818160000190805190602001906102b9929190611874565b5060005481600101819055506002600360003373ffffffffffffffffffffffffffffffffffffffff1673ffffffffffffffffffffffffffffffffffffffff16815260200190815260200160002060006101000a81548160ff0219169083600281111561032857610327611e10565b5b02179055505050565b60018060008282546103439190611f8c565b925050819055506103526118fa565b81816000018190525060015481602001818152505033600983604051610378919061201e565b908152602001604051809103902060006101000a81548173ffffffffffffffffffffffffffffffffffffffff021916908373ffffffffffffffffffffffffffffffffffffffff16021790555080600460003373ffffffffffffffffffffffffffffffffffffffff1673ffffffffffffffffffffffffffffffffffffffff1681526020019081526020016000206000820151816000019080519060200190610420929190611874565b5060208201518160010155604082015181600201908051906020019061044792919061191b565b509050506001600360003373ffffffffffffffffffffffffffffffffffffffff1673ffffffffffffffffffffffffffffffffffffffff16815260200190815260200160002060006101000a81548160ff021916908360028111156104ae576104ad611e10565b5b02179055505050565b6002808111156104ca576104c9611e10565b5b600360003373ffffffffffffffffffffffffffffffffffffffff1673ffffffffffffffffffffffffffffffffffffffff16815260200190815260200160002060009054906101000a900460ff16600281111561052957610528611e10565b5b14610569576040517f08c379a000000000000000000000000000000000000000000000000000000000815260040161056090612081565b60405180910390fd5b600560003373ffffffffffffffffffffffffffffffffffffffff1673ffffffffffffffffffffffffffffffffffffffff168152602001908152602001600020600301600082815260200190815260200160002060009054906101000a900460ff161561060a576040517f08c379a0000000000000000000000000000000000000000000000000000000008152600401610601906120ed565b60405180910390fd5b6000600660008381526020019081526020016000206040518060e001604052908160008201805461063a9061213c565b80601f01602080910402602001604051908101604052809291908181526020018280546106669061213c565b80156106b35780601f10610688576101008083540402835291602001916106b3565b820191906000526020600020905b81548152906001019060200180831161069657829003601f168201915b505050505081526020016001820180546106cc9061213c565b80601f01602080910402602001604051908101604052809291908181526020018280546106f89061213c565b80156107455780601f1061071a57610100808354040283529160200191610745565b820191906000526020600020905b81548152906001019060200180831161072857829003601f168201915b5050505050815260200160028201805461075e9061213c565b80601f016020809104026020016040519081016040528092919081815260200182805461078a9061213c565b80156107d75780601f106107ac576101008083540402835291602001916107d7565b820191906000526020600020905b8154815290600101906020018083116107ba57829003601f168201915b505050505081526020016003820180546107f09061213c565b80601f016020809104026020016040519081016040528092919081815260200182805461081c9061213c565b80156108695780601f1061083e57610100808354040283529160200191610869565b820191906000526020600020905b81548152906001019060200180831161084c57829003601f168201915b5050505050815260200160048201548152602001600582015481526020016006820160009054906101000a900473ffffffffffffffffffffffffffffffffffffffff1673ffffffffffffffffffffffffffffffffffffffff1673ffffffffffffffffffffffffffffffffffffffff1681525050905060018160a001516108ef919061216e565b3414610930576040517f08c379a00000000000000000000000000000000000000000000000000000000081526004016109279061223a565b60405180910390fd5b343373ffffffffffffffffffffffffffffffffffffffff163111610989576040517f08c379a0000000000000000000000000000000000000000000000000000000008152600401610980906122a6565b60405180910390fd5b8060c0015173ffffffffffffffffffffffffffffffffffffffff166108fc349081150290604051600060405180830381858888f193505050501580156109d3573d6000803e3d6000fd5b5060016007600084815260200190815260200160002060008282546109f89190611f8c565b92505081905550600560003373ffffffffffffffffffffffffffffffffffffffff1673ffffffffffffffffffffffffffffffffffffffff1681526020019081526020016000206002018290806001815401808255809150506001900390600052602060002001600090919091909150556001600560003373ffffffffffffffffffffffffffffffffffffffff1673ffffffffffffffffffffffffffffffffffffffff168152602001908152602001600020600301600084815260200190815260200160002060006101000a81548160ff0219169083151502179055507f4d5d3c0b738fd8f4b26fa11966a64c4b072cb5837aadaf02808df71f883a5d5181608001518260000151600560003373ffffffffffffffffffffffffffffffffffffffff1673ffffffffffffffffffffffffffffffffffffffff16815260200190815260200160002060000134604051610b52949392919061235b565b60405180910390a15050565b6060806060806000806006600088815260200190815260200160002060000160066000898152602001908152602001600020600101600660008a8152602001908152602001600020600201600660008b8152602001908152602001600020600301600660008c815260200190815260200160002060050154600760008d815260200190815260200160002054858054610bf69061213c565b80601f0160208091040260200160405190810160405280929190818152602001828054610c229061213c565b8015610c6f5780601f10610c4457610100808354040283529160200191610c6f565b820191906000526020600020905b815481529060010190602001808311610c5257829003601f168201915b50505050509550848054610c829061213c565b80601f0160208091040260200160405190810160405280929190818152602001828054610cae9061213c565b8015610cfb5780601f10610cd057610100808354040283529160200191610cfb565b820191906000526020600020905b815481529060010190602001808311610cde57829003601f168201915b50505050509450838054610d0e9061213c565b80601f0160208091040260200160405190810160405280929190818152602001828054610d3a9061213c565b8015610d875780601f10610d5c57610100808354040283529160200191610d87565b820191906000526020600020905b815481529060010190602001808311610d6a57829003601f168201915b50505050509350828054610d9a9061213c565b80601f0160208091040260200160405190810160405280929190818152602001828054610dc69061213c565b8015610e135780601f10610de857610100808354040283529160200191610e13565b820191906000526020600020905b815481529060010190602001808311610df657829003601f168201915b5050505050925095509550955095509550955091939550919395565b606060006060600460003373ffffffffffffffffffffffffffffffffffffffff1673ffffffffffffffffffffffffffffffffffffffff168152602001908152602001600020600001600460003373ffffffffffffffffffffffffffffffffffffffff1673ffffffffffffffffffffffffffffffffffffffff16815260200190815260200160002060010154600460003373ffffffffffffffffffffffffffffffffffffffff1673ffffffffffffffffffffffffffffffffffffffff168152602001908152602001600020600201828054610f089061213c565b80601f0160208091040260200160405190810160405280929190818152602001828054610f349061213c565b8015610f815780601f10610f5657610100808354040283529160200191610f81565b820191906000526020600020905b815481529060010190602001808311610f6457829003601f168201915b5050505050925080805480602002602001604051908101604052809291908181526020018280548015610fd357602002820191906000526020600020905b815481526020019060010190808311610fbf575b50505050509050925092509250909192565b606060006060600560003373ffffffffffffffffffffffffffffffffffffffff1673ffffffffffffffffffffffffffffffffffffffff168152602001908152602001600020600001600560003373ffffffffffffffffffffffffffffffffffffffff1673ffffffffffffffffffffffffffffffffffffffff16815260200190815260200160002060010154600560003373ffffffffffffffffffffffffffffffffffffffff1673ffffffffffffffffffffffffffffffffffffffff1681526020019081526020016000206002018280546110be9061213c565b80601f01602080910402602001604051908101604052809291908181526020018280546110ea9061213c565b80156111375780601f1061110c57610100808354040283529160200191611137565b820191906000526020600020905b81548152906001019060200180831161111a57829003601f168201915b505050505092508080548060200260200160405190810160405280929190818152602001828054801561118957602002820191906000526020600020905b815481526020019060010190808311611175575b50505050509050925092509250909192565b6000600360003373ffffffffffffffffffffffffffffffffffffffff1673ffffffffffffffffffffffffffffffffffffffff16815260200190815260200160002060009054906101000a900460ff16905090565b60028081111561120257611201611e10565b5b600360003373ffffffffffffffffffffffffffffffffffffffff1673ffffffffffffffffffffffffffffffffffffffff16815260200190815260200160002060009054906101000a900460ff16600281111561126157611260611e10565b5b146112a1576040517f08c379a000000000000000000000000000000000000000000000000000000000815260040161129890612081565b60405180910390fd5b343373ffffffffffffffffffffffffffffffffffffffff1631116112fa576040517f08c379a00000000000000000000000000000000000000000000000000000000081526004016112f1906122a6565b60405180910390fd5b60098160405161130a919061201e565b908152602001604051809103902060009054906101000a900473ffffffffffffffffffffffffffffffffffffffff1673ffffffffffffffffffffffffffffffffffffffff166108fc349081150290604051600060405180830381858888f1935050505015801561137e573d6000803e3d6000fd5b507f19fc7073cff31b76fe0bf3c801e7fe11652310c62d0c225a9995a5d30940c64881600560003373ffffffffffffffffffffffffffffffffffffffff1673ffffffffffffffffffffffffffffffffffffffff168152602001908152602001600020600001346040516113f3939291906123ae565b60405180910390a150565b6001600281111561141257611411611e10565b5b600360003373ffffffffffffffffffffffffffffffffffffffff1673ffffffffffffffffffffffffffffffffffffffff16815260200190815260200160002060009054906101000a900460ff16600281111561147157611470611e10565b5b146114b1576040517f08c379a00000000000000000000000000000000000000000000000000000000081526004016114a89061243f565b60405180910390fd5b6008826040516114c1919061201e565b908152602001604051809103902060009054906101000a900460ff161561151d576040517f08c379a0000000000000000000000000000000000000000000000000000000008152600401611514906124d1565b60405180910390fd5b6001600260008282546115309190611f8c565b9250508190555061153f611968565b600254816080018181525050848160000181905250600460003373ffffffffffffffffffffffffffffffffffffffff1673ffffffffffffffffffffffffffffffffffffffff16815260200190815260200160002060000180546115a19061213c565b80601f01602080910402602001604051908101604052809291908181526020018280546115cd9061213c565b801561161a5780601f106115ef5761010080835404028352916020019161161a565b820191906000526020600020905b8154815290600101906020018083116115fd57829003601f168201915b50505050508160200181905250838160400181905250828160600181905250818160a0018181525050338160c0019073ffffffffffffffffffffffffffffffffffffffff16908173ffffffffffffffffffffffffffffffffffffffff16815250506000600760006002548152602001908152602001600020819055508060066000600254815260200190815260200160002060008201518160000190805190602001906116c8929190611874565b5060208201518160010190805190602001906116e5929190611874565b506040820151816002019080519060200190611702929190611874565b50606082015181600301908051906020019061171f929190611874565b506080820151816004015560a0820151816005015560c08201518160060160006101000a81548173ffffffffffffffffffffffffffffffffffffffff021916908373ffffffffffffffffffffffffffffffffffffffff160217905550905050600460003373ffffffffffffffffffffffffffffffffffffffff1673ffffffffffffffffffffffffffffffffffffffff168152602001908152602001600020600201600254908060018154018082558091505060019003906000526020600020016000909190919091505560016008846040516117fb919061201e565b908152602001604051809103902060006101000a81548160ff0219169083151502179055507f8c6d5283b06a4f84805865678e0a51043ab4788bdd609db7c5cbe4c6fce5c97f8160800151826000015183602001518460a0015160405161186594939291906124f1565b60405180910390a15050505050565b8280546118809061213c565b90600052602060002090601f0160209004810192826118a257600085556118e9565b82601f106118bb57805160ff19168380011785556118e9565b828001600101855582156118e9579182015b828111156118e85782518255916020019190600101906118cd565b5b5090506118f691906119bb565b5090565b60405180606001604052806060815260200160008152602001606081525090565b828054828255906000526020600020908101928215611957579160200282015b8281111561195657825182559160200191906001019061193b565b5b50905061196491906119bb565b5090565b6040518060e00160405280606081526020016060815260200160608152602001606081526020016000815260200160008152602001600073ffffffffffffffffffffffffffffffffffffffff1681525090565b5b808211156119d45760008160009055506001016119bc565b5090565b6000819050919050565b6119eb816119d8565b82525050565b6000602082019050611a0660008301846119e2565b92915050565b6000604051905090565b600080fd5b600080fd5b600080fd5b600080fd5b6000601f19601f8301169050919050565b7f4e487b7100000000000000000000000000000000000000000000000000000000600052604160045260246000fd5b611a7382611a2a565b810181811067ffffffffffffffff82111715611a9257611a91611a3b565b5b80604052505050565b6000611aa5611a0c565b9050611ab18282611a6a565b919050565b600067ffffffffffffffff821115611ad157611ad0611a3b565b5b611ada82611a2a565b9050602081019050919050565b82818337600083830152505050565b6000611b09611b0484611ab6565b611a9b565b905082815260208101848484011115611b2557611b24611a25565b5b611b30848285611ae7565b509392505050565b600082601f830112611b4d57611b4c611a20565b5b8135611b5d848260208601611af6565b91505092915050565b600060208284031215611b7c57611b7b611a16565b5b600082013567ffffffffffffffff811115611b9a57611b99611a1b565b5b611ba684828501611b38565b91505092915050565b611bb8816119d8565b8114611bc357600080fd5b50565b600081359050611bd581611baf565b92915050565b600060208284031215611bf157611bf0611a16565b5b6000611bff84828501611bc6565b91505092915050565b600081519050919050565b600082825260208201905092915050565b60005b83811015611c42578082015181840152602081019050611c27565b83811115611c51576000848401525b50505050565b6000611c6282611c08565b611c6c8185611c13565b9350611c7c818560208601611c24565b611c8581611a2a565b840191505092915050565b600060c0820190508181036000830152611caa8189611c57565b90508181036020830152611cbe8188611c57565b90508181036040830152611cd28187611c57565b90508181036060830152611ce68186611c57565b9050611cf560808301856119e2565b611d0260a08301846119e2565b979650505050505050565b600081519050919050565b600082825260208201905092915050565b6000819050602082019050919050565b611d42816119d8565b82525050565b6000611d548383611d39565b60208301905092915050565b6000602082019050919050565b6000611d7882611d0d565b611d828185611d18565b9350611d8d83611d29565b8060005b83811015611dbe578151611da58882611d48565b9750611db083611d60565b925050600181019050611d91565b5085935050505092915050565b60006060820190508181036000830152611de58186611c57565b9050611df460208301856119e2565b8181036040830152611e068184611d6d565b9050949350505050565b7f4e487b7100000000000000000000000000000000000000000000000000000000600052602160045260246000fd5b60038110611e5057611e4f611e10565b5b50565b6000819050611e6182611e3f565b919050565b6000611e7182611e53565b9050919050565b611e8181611e66565b82525050565b6000602082019050611e9c6000830184611e78565b92915050565b60008060008060808587031215611ebc57611ebb611a16565b5b600085013567ffffffffffffffff811115611eda57611ed9611a1b565b5b611ee687828801611b38565b945050602085013567ffffffffffffffff811115611f0757611f06611a1b565b5b611f1387828801611b38565b935050604085013567ffffffffffffffff811115611f3457611f33611a1b565b5b611f4087828801611b38565b9250506060611f5187828801611bc6565b91505092959194509250565b7f4e487b7100000000000000000000000000000000000000000000000000000000600052601160045260246000fd5b6000611f97826119d8565b9150611fa2836119d8565b9250827fffffffffffffffffffffffffffffffffffffffffffffffffffffffffffffffff03821115611fd757611fd6611f5d565b5b828201905092915050565b600081905092915050565b6000611ff882611c08565b6120028185611fe2565b9350612012818560208601611c24565b80840191505092915050565b600061202a8284611fed565b915081905092915050565b7f4e6f7420616e2061756469656e6365206d656d6265722e000000000000000000600082015250565b600061206b601783611c13565b915061207682612035565b602082019050919050565b6000602082019050818103600083015261209a8161205e565b9050919050565b7f43616e6e6f74206275792074686520736f6e672074776963652e000000000000600082015250565b60006120d7601a83611c13565b91506120e2826120a1565b602082019050919050565b60006020820190508181036000830152612106816120ca565b9050919050565b7f4e487b7100000000000000000000000000000000000000000000000000000000600052602260045260246000fd5b6000600282049050600182168061215457607f821691505b602082108114156121685761216761210d565b5b50919050565b6000612179826119d8565b9150612184836119d8565b9250817fffffffffffffffffffffffffffffffffffffffffffffffffffffffffffffffff04831182151516156121bd576121bc611f5d565b5b828202905092915050565b7f416d6f756e7420706179656420646f6573206e6f74206d61746368207072696360008201527f65206f662074686520736f6e672e000000000000000000000000000000000000602082015250565b6000612224602e83611c13565b915061222f826121c8565b604082019050919050565b6000602082019050818103600083015261225381612217565b9050919050565b7f496e73756666696369656e742062616c616e63652e0000000000000000000000600082015250565b6000612290601583611c13565b915061229b8261225a565b602082019050919050565b600060208201905081810360008301526122bf81612283565b9050919050565b60008190508160005260206000209050919050565b600081546122e88161213c565b6122f28186611c13565b9450600182166000811461230d576001811461231f57612352565b60ff1983168652602086019350612352565b612328856122c6565b60005b8381101561234a5781548189015260018201915060208101905061232b565b808801955050505b50505092915050565b600060808201905061237060008301876119e2565b81810360208301526123828186611c57565b9050818103604083015261239681856122db565b90506123a560608301846119e2565b95945050505050565b600060608201905081810360008301526123c88186611c57565b905081810360208301526123dc81856122db565b90506123eb60408301846119e2565b949350505050565b7f4e6f7420616e206172746973742e000000000000000000000000000000000000600082015250565b6000612429600e83611c13565b9150612434826123f3565b602082019050919050565b600060208201905081810360008301526124588161241c565b9050919050565b7f4475706c69636174652064657465637465642e20536f6e67206861736820616c60008201527f726561647920696e207573652e00000000000000000000000000000000000000602082015250565b60006124bb602d83611c13565b91506124c68261245f565b604082019050919050565b600060208201905081810360008301526124ea816124ae565b9050919050565b600060808201905061250660008301876119e2565b81810360208301526125188186611c57565b9050818103604083015261252c8185611c57565b905061253b60608301846119e2565b9594505050505056fea26469706673582212200181e5f76921457db53fb60fad8f863df326069fb520e8d78618a832de95fb0864736f6c63430008090033",
  "immutableReferences": {},
  "source": "pragma solidity >=0.7.0 <0.9.0;\n\ncontract blockstudio {\n    uint256 audienceIDTracker;\n    uint256 artistIDTracker;\n    uint256 songIDTracker;\n\n    enum UserType {\n        UNDEFINED,\n        ARTIST,\n        AUDIENCE\n    }\n\n    struct Artist {\n        string name;\n        uint256 artistID;\n        uint256[] songsPublished;\n    }\n\n    struct Audience {\n        string name;\n        uint256 audienceID;\n        uint256[] songsPurchased;\n        mapping(uint256 => bool) isSongPurchased;\n    }\n\n    struct Song {\n        string songName;\n        string artistName;\n        string genre;\n        string hash;\n        uint256 songID;\n        uint256 price;\n        address payable artistAddress;\n    }\n\n    mapping(address => UserType) identifyUser;\n    mapping(address => Artist) allArtists;\n    mapping(address => Audience) allAudience;\n    mapping(uint256 => Song) allSongs;\n    mapping(uint256 => uint256) timesSongPurchased;\n    mapping(string => bool) songHashUsed;\n    mapping(string => address payable) getArtistAddress;\n\n    constructor() {\n        audienceIDTracker = 0;\n        artistIDTracker = 0;\n        songIDTracker = 0;\n    }\n\n    function getNumSongs() public view returns (uint256) {\n        return songIDTracker;\n    }\n\n    function checkUser() public view returns (UserType) {\n        return identifyUser[msg.sender];\n    }\n\n    function addNewArtist(string memory _name) public {\n        artistIDTracker += 1;\n\n        Artist memory newArtist;\n        newArtist.name = _name;\n        newArtist.artistID = artistIDTracker;\n        getArtistAddress[_name] = payable(msg.sender);\n\n        allArtists[msg.sender] = newArtist;\n        identifyUser[msg.sender] = UserType.ARTIST;\n    }\n\n    function addNewAudience(string memory _name) public {\n        audienceIDTracker += 1;\n\n        Audience storage newAudience = allAudience[msg.sender];\n        newAudience.name = _name;\n        newAudience.audienceID = audienceIDTracker;\n\n        identifyUser[msg.sender] = UserType.AUDIENCE;\n    }\n\n    function getAudienceDetails()\n        public\n        view\n        returns (\n            string memory,\n            uint256,\n            uint256[] memory\n        )\n    {\n        return (\n            allAudience[msg.sender].name,\n            allAudience[msg.sender].audienceID,\n            allAudience[msg.sender].songsPurchased\n        );\n    }\n\n    function getArtistDetails()\n        public\n        view\n        returns (\n            string memory,\n            uint256,\n            uint256[] memory\n        )\n    {\n        return (\n            allArtists[msg.sender].name,\n            allArtists[msg.sender].artistID,\n            allArtists[msg.sender].songsPublished\n        );\n    }\n\n    event songAdded(\n        uint256 songID,\n        string songName,\n        string artistName,\n        uint256 price\n    );\n\n    function addSong(\n        string memory _name,\n        string memory _genre,\n        string memory _hash,\n        uint256 _price\n    ) public {\n        require(identifyUser[msg.sender] == UserType.ARTIST, \"Not an artist.\");\n        require(\n            !songHashUsed[_hash],\n            \"Duplicate detected. Song hash already in use.\"\n        );\n\n        songIDTracker += 1;\n\n        Song memory newSong;\n        newSong.songID = songIDTracker;\n        newSong.songName = _name;\n        newSong.artistName = allArtists[msg.sender].name;\n        newSong.genre = _genre;\n        newSong.hash = _hash;\n        newSong.price = _price;\n        newSong.artistAddress = payable(msg.sender);\n\n        timesSongPurchased[songIDTracker] = 0;\n\n        allSongs[songIDTracker] = newSong;\n        allArtists[msg.sender].songsPublished.push(songIDTracker);\n        songHashUsed[_hash] = true;\n\n        emit songAdded(\n            newSong.songID,\n            newSong.songName,\n            newSong.artistName,\n            newSong.price\n        );\n    }\n\n    event songPurchased(\n        uint256 songID,\n        string songName,\n        string audienceName,\n        uint256 price\n    );\n\n    function buySong(uint256 _songID) public payable {\n        require(\n            identifyUser[msg.sender] == UserType.AUDIENCE,\n            \"Not an audience member.\"\n        );\n        require(\n            !allAudience[msg.sender].isSongPurchased[_songID],\n            \"Cannot buy the song twice.\"\n        );\n\n        Song memory curSong = allSongs[_songID];\n\n        require(\n            msg.value == (curSong.price * 1 wei),\n            \"Amount payed does not match price of the song.\"\n        );\n        require(msg.sender.balance > msg.value, \"Insufficient balance.\");\n\n        curSong.artistAddress.transfer(msg.value);\n        timesSongPurchased[_songID] += 1;\n\n        allAudience[msg.sender].songsPurchased.push(_songID);\n        allAudience[msg.sender].isSongPurchased[_songID] = true;\n\n        emit songPurchased(\n            curSong.songID,\n            curSong.songName,\n            allAudience[msg.sender].name,\n            msg.value\n        );\n    }\n\n    event artistDonated(string artistName, string audienceName, uint256 amount);\n\n    function donateArtist(string memory artistName) public payable {\n        require(\n            identifyUser[msg.sender] == UserType.AUDIENCE,\n            \"Not an audience member.\"\n        );\n        require(msg.sender.balance > msg.value, \"Insufficient balance.\");\n\n        getArtistAddress[artistName].transfer(msg.value);\n\n        emit artistDonated(artistName, allAudience[msg.sender].name, msg.value);\n    }\n\n    function getSongDetails(uint256 _songID)\n        public\n        view\n        returns (\n            string memory,\n            string memory,\n            string memory,\n            string memory,\n            uint256,\n            uint256\n        )\n    {\n        return (\n            allSongs[_songID].songName,\n            allSongs[_songID].artistName,\n            allSongs[_songID].genre,\n            allSongs[_songID].hash,\n            allSongs[_songID].price,\n            timesSongPurchased[_songID]\n        );\n    }\n}\n",
  "sourcePath": "/Users/anuneet/Documents/GitHub/blockstudio/App/contracts/blockstudio.sol",
  "compiler": {
    "name": "solc",
    "version": "0.8.9+commit.e5eed63a.Emscripten.clang"
  },
  "schemaVersion": "3.4.3",
  "updatedAt": "2021-12-14T14:49:34.230Z",
  "networkType": "ethereum",
  "devdoc": {
    "kind": "dev",
    "methods": {},
    "version": 1
  },
  "userdoc": {
    "kind": "user",
    "methods": {},
    "version": 1
  }
}