{
  "contractName": "blockstudio",
  "abi": [
    {
      "inputs": [],
      "stateMutability": "nonpayable",
      "type": "constructor"
    },
    {
      "anonymous": false,
      "inputs": [
        {
          "indexed": false,
          "internalType": "uint256",
          "name": "songID",
          "type": "uint256"
        },
        {
          "indexed": false,
          "internalType": "string",
          "name": "songName",
          "type": "string"
        },
        {
          "indexed": false,
          "internalType": "string",
          "name": "artistName",
          "type": "string"
        },
        {
          "indexed": false,
          "internalType": "uint256",
          "name": "price",
          "type": "uint256"
        }
      ],
      "name": "songAdded",
      "type": "event"
    },
    {
      "anonymous": false,
      "inputs": [
        {
          "indexed": false,
          "internalType": "uint256",
          "name": "songID",
          "type": "uint256"
        },
        {
          "indexed": false,
          "internalType": "string",
          "name": "songName",
          "type": "string"
        },
        {
          "indexed": false,
          "internalType": "string",
          "name": "audienceName",
          "type": "string"
        },
        {
          "indexed": false,
          "internalType": "uint256",
          "name": "price",
          "type": "uint256"
        }
      ],
      "name": "songPurchased",
      "type": "event"
    },
    {
      "inputs": [],
      "name": "checkUser",
      "outputs": [
        {
          "internalType": "enum blockstudio.UserType",
          "name": "",
          "type": "uint8"
        }
      ],
      "stateMutability": "view",
      "type": "function",
      "constant": true
    },
    {
      "inputs": [
        {
          "internalType": "string",
          "name": "_name",
          "type": "string"
        }
      ],
      "name": "addNewArtist",
      "outputs": [],
      "stateMutability": "nonpayable",
      "type": "function"
    },
    {
      "inputs": [
        {
          "internalType": "string",
          "name": "_name",
          "type": "string"
        }
      ],
      "name": "addNewAudience",
      "outputs": [],
      "stateMutability": "nonpayable",
      "type": "function"
    },
    {
      "inputs": [],
      "name": "getAudienceDetails",
      "outputs": [
        {
          "internalType": "string",
          "name": "",
          "type": "string"
        },
        {
          "internalType": "uint256",
          "name": "",
          "type": "uint256"
        },
        {
          "internalType": "uint256[]",
          "name": "",
          "type": "uint256[]"
        }
      ],
      "stateMutability": "view",
      "type": "function",
      "constant": true
    },
    {
      "inputs": [],
      "name": "getArtistDetails",
      "outputs": [
        {
          "internalType": "string",
          "name": "",
          "type": "string"
        },
        {
          "internalType": "uint256",
          "name": "",
          "type": "uint256"
        },
        {
          "internalType": "uint256",
          "name": "",
          "type": "uint256"
        },
        {
          "internalType": "uint256[]",
          "name": "",
          "type": "uint256[]"
        }
      ],
      "stateMutability": "view",
      "type": "function",
      "constant": true
    },
    {
      "inputs": [
        {
          "internalType": "string",
          "name": "_name",
          "type": "string"
        },
        {
          "internalType": "string",
          "name": "_genre",
          "type": "string"
        },
        {
          "internalType": "string",
          "name": "_hash",
          "type": "string"
        },
        {
          "internalType": "uint256",
          "name": "_price",
          "type": "uint256"
        }
      ],
      "name": "addSong",
      "outputs": [],
      "stateMutability": "nonpayable",
      "type": "function"
    },
    {
      "inputs": [
        {
          "internalType": "uint256",
          "name": "_songID",
          "type": "uint256"
        }
      ],
      "name": "buySong",
      "outputs": [],
      "stateMutability": "payable",
      "type": "function",
      "payable": true
    },
    {
      "inputs": [
        {
          "internalType": "uint256",
          "name": "_songID",
          "type": "uint256"
        }
      ],
      "name": "getSongDetails",
      "outputs": [
        {
          "internalType": "string",
          "name": "",
          "type": "string"
        },
        {
          "internalType": "string",
          "name": "",
          "type": "string"
        },
        {
          "internalType": "string",
          "name": "",
          "type": "string"
        },
        {
          "internalType": "string",
          "name": "",
          "type": "string"
        },
        {
          "internalType": "uint256",
          "name": "",
          "type": "uint256"
        }
      ],
      "stateMutability": "view",
      "type": "function",
      "constant": true
    }
  ],
  "bytecode": "0x608060405234801561001057600080fd5b50600080819055506000600181905550600060028190555061210a806100376000396000f3fe60806040526004361061007b5760003560e01c80637f7a45101161004e5780637f7a45101461012f578063bddff7681461015d578063c15625471461018a578063f29b4165146101b55761007b565b80631a0cd3431461008057806342490c4b146100a9578063606a0175146100d257806377822fc2146100ee575b600080fd5b34801561008c57600080fd5b506100a760048036038101906100a291906117c2565b6101de565b005b3480156100b557600080fd5b506100d060048036038101906100cb91906117c2565b6102ca565b005b6100ec60048036038101906100e79190611841565b610408565b005b3480156100fa57600080fd5b5061011560048036038101906101109190611841565b610a84565b604051610126959493929190611905565b60405180910390f35b34801561013b57600080fd5b50610144610d3e565b6040516101549493929190611a32565b60405180910390f35b34801561016957600080fd5b50610172610f3b565b60405161018193929190611a85565b60405180910390f35b34801561019657600080fd5b5061019f6110f1565b6040516101ac9190611b41565b60405180910390f35b3480156101c157600080fd5b506101dc60048036038101906101d79190611b5c565b611145565b005b60016000808282546101f09190611c46565b925050819055506000600560003373ffffffffffffffffffffffffffffffffffffffff1673ffffffffffffffffffffffffffffffffffffffff1681526020019081526020016000209050818160000190805190602001906102529291906114fd565b5060005481600101819055506002600360003373ffffffffffffffffffffffffffffffffffffffff1673ffffffffffffffffffffffffffffffffffffffff16815260200190815260200160002060006101000a81548160ff021916908360028111156102c1576102c0611aca565b5b02179055505050565b60018060008282546102dc9190611c46565b925050819055506102eb611583565b818160000181905250600154816020018181525050600081604001818152505080600460003373ffffffffffffffffffffffffffffffffffffffff1673ffffffffffffffffffffffffffffffffffffffff16815260200190815260200160002060008201518160000190805190602001906103679291906114fd565b50602082015181600101556040820151816002015560608201518160030190805190602001906103989291906115ab565b509050506001600360003373ffffffffffffffffffffffffffffffffffffffff1673ffffffffffffffffffffffffffffffffffffffff16815260200190815260200160002060006101000a81548160ff021916908360028111156103ff576103fe611aca565b5b02179055505050565b60028081111561041b5761041a611aca565b5b600360003373ffffffffffffffffffffffffffffffffffffffff1673ffffffffffffffffffffffffffffffffffffffff16815260200190815260200160002060009054906101000a900460ff16600281111561047a57610479611aca565b5b146104ba576040517f08c379a00000000000000000000000000000000000000000000000000000000081526004016104b190611ce8565b60405180910390fd5b600560003373ffffffffffffffffffffffffffffffffffffffff1673ffffffffffffffffffffffffffffffffffffffff168152602001908152602001600020600301600082815260200190815260200160002060009054906101000a900460ff161561055b576040517f08c379a000000000000000000000000000000000000000000000000000000000815260040161055290611d54565b60405180910390fd5b6000600660008381526020019081526020016000206040518060e001604052908160008201805461058b90611da3565b80601f01602080910402602001604051908101604052809291908181526020018280546105b790611da3565b80156106045780601f106105d957610100808354040283529160200191610604565b820191906000526020600020905b8154815290600101906020018083116105e757829003601f168201915b5050505050815260200160018201805461061d90611da3565b80601f016020809104026020016040519081016040528092919081815260200182805461064990611da3565b80156106965780601f1061066b57610100808354040283529160200191610696565b820191906000526020600020905b81548152906001019060200180831161067957829003601f168201915b505050505081526020016002820180546106af90611da3565b80601f01602080910402602001604051908101604052809291908181526020018280546106db90611da3565b80156107285780601f106106fd57610100808354040283529160200191610728565b820191906000526020600020905b81548152906001019060200180831161070b57829003601f168201915b5050505050815260200160038201805461074190611da3565b80601f016020809104026020016040519081016040528092919081815260200182805461076d90611da3565b80156107ba5780601f1061078f576101008083540402835291602001916107ba565b820191906000526020600020905b81548152906001019060200180831161079d57829003601f168201915b5050505050815260200160048201548152602001600582015481526020016006820160009054906101000a900473ffffffffffffffffffffffffffffffffffffffff1673ffffffffffffffffffffffffffffffffffffffff1673ffffffffffffffffffffffffffffffffffffffff1681525050905060018160a001516108409190611dd5565b3414610881576040517f08c379a000000000000000000000000000000000000000000000000000000000815260040161087890611ea1565b60405180910390fd5b343373ffffffffffffffffffffffffffffffffffffffff1631116108da576040517f08c379a00000000000000000000000000000000000000000000000000000000081526004016108d190611f0d565b60405180910390fd5b8060c0015173ffffffffffffffffffffffffffffffffffffffff166108fc349081150290604051600060405180830381858888f19350505050158015610924573d6000803e3d6000fd5b50600560003373ffffffffffffffffffffffffffffffffffffffff1673ffffffffffffffffffffffffffffffffffffffff1681526020019081526020016000206002018290806001815401808255809150506001900390600052602060002001600090919091909150556001600560003373ffffffffffffffffffffffffffffffffffffffff1673ffffffffffffffffffffffffffffffffffffffff168152602001908152602001600020600301600084815260200190815260200160002060006101000a81548160ff0219169083151502179055507f4d5d3c0b738fd8f4b26fa11966a64c4b072cb5837aadaf02808df71f883a5d5181608001518260000151600560003373ffffffffffffffffffffffffffffffffffffffff1673ffffffffffffffffffffffffffffffffffffffff16815260200190815260200160002060000134604051610a789493929190611fc2565b60405180910390a15050565b6060806060806000600660008781526020019081526020016000206000016006600088815260200190815260200160002060010160066000898152602001908152602001600020600201600660008a8152602001908152602001600020600301600660008b815260200190815260200160002060050154848054610b0790611da3565b80601f0160208091040260200160405190810160405280929190818152602001828054610b3390611da3565b8015610b805780601f10610b5557610100808354040283529160200191610b80565b820191906000526020600020905b815481529060010190602001808311610b6357829003601f168201915b50505050509450838054610b9390611da3565b80601f0160208091040260200160405190810160405280929190818152602001828054610bbf90611da3565b8015610c0c5780601f10610be157610100808354040283529160200191610c0c565b820191906000526020600020905b815481529060010190602001808311610bef57829003601f168201915b50505050509350828054610c1f90611da3565b80601f0160208091040260200160405190810160405280929190818152602001828054610c4b90611da3565b8015610c985780601f10610c6d57610100808354040283529160200191610c98565b820191906000526020600020905b815481529060010190602001808311610c7b57829003601f168201915b50505050509250818054610cab90611da3565b80601f0160208091040260200160405190810160405280929190818152602001828054610cd790611da3565b8015610d245780601f10610cf957610100808354040283529160200191610d24565b820191906000526020600020905b815481529060010190602001808311610d0757829003601f168201915b505050505091509450945094509450945091939590929450565b60606000806060600460003373ffffffffffffffffffffffffffffffffffffffff1673ffffffffffffffffffffffffffffffffffffffff168152602001908152602001600020600001600460003373ffffffffffffffffffffffffffffffffffffffff1673ffffffffffffffffffffffffffffffffffffffff16815260200190815260200160002060010154600460003373ffffffffffffffffffffffffffffffffffffffff1673ffffffffffffffffffffffffffffffffffffffff16815260200190815260200160002060020154600460003373ffffffffffffffffffffffffffffffffffffffff1673ffffffffffffffffffffffffffffffffffffffff168152602001908152602001600020600301838054610e5b90611da3565b80601f0160208091040260200160405190810160405280929190818152602001828054610e8790611da3565b8015610ed45780601f10610ea957610100808354040283529160200191610ed4565b820191906000526020600020905b815481529060010190602001808311610eb757829003601f168201915b5050505050935080805480602002602001604051908101604052809291908181526020018280548015610f2657602002820191906000526020600020905b815481526020019060010190808311610f12575b50505050509050935093509350935090919293565b606060006060600560003373ffffffffffffffffffffffffffffffffffffffff1673ffffffffffffffffffffffffffffffffffffffff168152602001908152602001600020600001600560003373ffffffffffffffffffffffffffffffffffffffff1673ffffffffffffffffffffffffffffffffffffffff16815260200190815260200160002060010154600560003373ffffffffffffffffffffffffffffffffffffffff1673ffffffffffffffffffffffffffffffffffffffff16815260200190815260200160002060020182805461101490611da3565b80601f016020809104026020016040519081016040528092919081815260200182805461104090611da3565b801561108d5780601f106110625761010080835404028352916020019161108d565b820191906000526020600020905b81548152906001019060200180831161107057829003601f168201915b50505050509250808054806020026020016040519081016040528092919081815260200182805480156110df57602002820191906000526020600020905b8154815260200190600101908083116110cb575b50505050509050925092509250909192565b6000600360003373ffffffffffffffffffffffffffffffffffffffff1673ffffffffffffffffffffffffffffffffffffffff16815260200190815260200160002060009054906101000a900460ff16905090565b6001600281111561115957611158611aca565b5b600360003373ffffffffffffffffffffffffffffffffffffffff1673ffffffffffffffffffffffffffffffffffffffff16815260200190815260200160002060009054906101000a900460ff1660028111156111b8576111b7611aca565b5b146111f8576040517f08c379a00000000000000000000000000000000000000000000000000000000081526004016111ef90612061565b60405180910390fd5b60016002600082825461120b9190611c46565b9250508190555061121a6115f8565b600254816080018181525050848160000181905250600460003373ffffffffffffffffffffffffffffffffffffffff1673ffffffffffffffffffffffffffffffffffffffff168152602001908152602001600020600001805461127c90611da3565b80601f01602080910402602001604051908101604052809291908181526020018280546112a890611da3565b80156112f55780601f106112ca576101008083540402835291602001916112f5565b820191906000526020600020905b8154815290600101906020018083116112d857829003601f168201915b50505050508160200181905250838160400181905250828160600181905250818160a0018181525050338160c0019073ffffffffffffffffffffffffffffffffffffffff16908173ffffffffffffffffffffffffffffffffffffffff16815250508060066000600254815260200190815260200160002060008201518160000190805190602001906113889291906114fd565b5060208201518160010190805190602001906113a59291906114fd565b5060408201518160020190805190602001906113c29291906114fd565b5060608201518160030190805190602001906113df9291906114fd565b506080820151816004015560a0820151816005015560c08201518160060160006101000a81548173ffffffffffffffffffffffffffffffffffffffff021916908373ffffffffffffffffffffffffffffffffffffffff160217905550905050600460003373ffffffffffffffffffffffffffffffffffffffff1673ffffffffffffffffffffffffffffffffffffffff16815260200190815260200160002060030160025490806001815401808255809150506001900390600052602060002001600090919091909150557f8c6d5283b06a4f84805865678e0a51043ab4788bdd609db7c5cbe4c6fce5c97f8160800151826000015183602001518460a001516040516114ee9493929190612081565b60405180910390a15050505050565b82805461150990611da3565b90600052602060002090601f01602090048101928261152b5760008555611572565b82601f1061154457805160ff1916838001178555611572565b82800160010185558215611572579182015b82811115611571578251825591602001919060010190611556565b5b50905061157f919061164b565b5090565b6040518060800160405280606081526020016000815260200160008152602001606081525090565b8280548282559060005260206000209081019282156115e7579160200282015b828111156115e65782518255916020019190600101906115cb565b5b5090506115f4919061164b565b5090565b6040518060e00160405280606081526020016060815260200160608152602001606081526020016000815260200160008152602001600073ffffffffffffffffffffffffffffffffffffffff1681525090565b5b8082111561166457600081600090555060010161164c565b5090565b6000604051905090565b600080fd5b600080fd5b600080fd5b600080fd5b6000601f19601f8301169050919050565b7f4e487b7100000000000000000000000000000000000000000000000000000000600052604160045260246000fd5b6116cf82611686565b810181811067ffffffffffffffff821117156116ee576116ed611697565b5b80604052505050565b6000611701611668565b905061170d82826116c6565b919050565b600067ffffffffffffffff82111561172d5761172c611697565b5b61173682611686565b9050602081019050919050565b82818337600083830152505050565b600061176561176084611712565b6116f7565b90508281526020810184848401111561178157611780611681565b5b61178c848285611743565b509392505050565b600082601f8301126117a9576117a861167c565b5b81356117b9848260208601611752565b91505092915050565b6000602082840312156117d8576117d7611672565b5b600082013567ffffffffffffffff8111156117f6576117f5611677565b5b61180284828501611794565b91505092915050565b6000819050919050565b61181e8161180b565b811461182957600080fd5b50565b60008135905061183b81611815565b92915050565b60006020828403121561185757611856611672565b5b60006118658482850161182c565b91505092915050565b600081519050919050565b600082825260208201905092915050565b60005b838110156118a857808201518184015260208101905061188d565b838111156118b7576000848401525b50505050565b60006118c88261186e565b6118d28185611879565b93506118e281856020860161188a565b6118eb81611686565b840191505092915050565b6118ff8161180b565b82525050565b600060a082019050818103600083015261191f81886118bd565b9050818103602083015261193381876118bd565b9050818103604083015261194781866118bd565b9050818103606083015261195b81856118bd565b905061196a60808301846118f6565b9695505050505050565b600081519050919050565b600082825260208201905092915050565b6000819050602082019050919050565b6119a98161180b565b82525050565b60006119bb83836119a0565b60208301905092915050565b6000602082019050919050565b60006119df82611974565b6119e9818561197f565b93506119f483611990565b8060005b83811015611a25578151611a0c88826119af565b9750611a17836119c7565b9250506001810190506119f8565b5085935050505092915050565b60006080820190508181036000830152611a4c81876118bd565b9050611a5b60208301866118f6565b611a6860408301856118f6565b8181036060830152611a7a81846119d4565b905095945050505050565b60006060820190508181036000830152611a9f81866118bd565b9050611aae60208301856118f6565b8181036040830152611ac081846119d4565b9050949350505050565b7f4e487b7100000000000000000000000000000000000000000000000000000000600052602160045260246000fd5b60038110611b0a57611b09611aca565b5b50565b6000819050611b1b82611af9565b919050565b6000611b2b82611b0d565b9050919050565b611b3b81611b20565b82525050565b6000602082019050611b566000830184611b32565b92915050565b60008060008060808587031215611b7657611b75611672565b5b600085013567ffffffffffffffff811115611b9457611b93611677565b5b611ba087828801611794565b945050602085013567ffffffffffffffff811115611bc157611bc0611677565b5b611bcd87828801611794565b935050604085013567ffffffffffffffff811115611bee57611bed611677565b5b611bfa87828801611794565b9250506060611c0b8782880161182c565b91505092959194509250565b7f4e487b7100000000000000000000000000000000000000000000000000000000600052601160045260246000fd5b6000611c518261180b565b9150611c5c8361180b565b9250827fffffffffffffffffffffffffffffffffffffffffffffffffffffffffffffffff03821115611c9157611c90611c17565b5b828201905092915050565b7f4e6f7420616e2061756469656e6365206d656d6265722e000000000000000000600082015250565b6000611cd2601783611879565b9150611cdd82611c9c565b602082019050919050565b60006020820190508181036000830152611d0181611cc5565b9050919050565b7f43616e6e6f74206275792074686520736f6e672074776963652e000000000000600082015250565b6000611d3e601a83611879565b9150611d4982611d08565b602082019050919050565b60006020820190508181036000830152611d6d81611d31565b9050919050565b7f4e487b7100000000000000000000000000000000000000000000000000000000600052602260045260246000fd5b60006002820490506001821680611dbb57607f821691505b60208210811415611dcf57611dce611d74565b5b50919050565b6000611de08261180b565b9150611deb8361180b565b9250817fffffffffffffffffffffffffffffffffffffffffffffffffffffffffffffffff0483118215151615611e2457611e23611c17565b5b828202905092915050565b7f416d6f756e7420706179656420646f6573206e6f74206d61746368207072696360008201527f65206f662074686520736f6e672e000000000000000000000000000000000000602082015250565b6000611e8b602e83611879565b9150611e9682611e2f565b604082019050919050565b60006020820190508181036000830152611eba81611e7e565b9050919050565b7f496e73756666696369656e742062616c616e63652e0000000000000000000000600082015250565b6000611ef7601583611879565b9150611f0282611ec1565b602082019050919050565b60006020820190508181036000830152611f2681611eea565b9050919050565b60008190508160005260206000209050919050565b60008154611f4f81611da3565b611f598186611879565b94506001821660008114611f745760018114611f8657611fb9565b60ff1983168652602086019350611fb9565b611f8f85611f2d565b60005b83811015611fb157815481890152600182019150602081019050611f92565b808801955050505b50505092915050565b6000608082019050611fd760008301876118f6565b8181036020830152611fe981866118bd565b90508181036040830152611ffd8185611f42565b905061200c60608301846118f6565b95945050505050565b7f4e6f7420616e206172746973742e000000000000000000000000000000000000600082015250565b600061204b600e83611879565b915061205682612015565b602082019050919050565b6000602082019050818103600083015261207a8161203e565b9050919050565b600060808201905061209660008301876118f6565b81810360208301526120a881866118bd565b905081810360408301526120bc81856118bd565b90506120cb60608301846118f6565b9594505050505056fea2646970667358221220c3a78f35ef1b79dea197f3e09cfaa6cd6e8e86068c93e243c95cff09b9f737ac64736f6c63430008090033",
  "immutableReferences": {},
  "source": "pragma solidity >=0.7.0 <0.9.0;\r\n\r\ncontract blockstudio {\r\n    uint audienceIDTracker;\r\n    uint artistIDTracker;\r\n    uint songIDTracker;\r\n    \r\n    enum UserType {UNDEFINED, ARTIST, AUDIENCE}\r\n    \r\n    struct Artist {\r\n        string name;\r\n        uint artistID;\r\n        uint rating;\r\n        uint[] songsPublished;\r\n    }\r\n    \r\n    struct Audience {\r\n        string name;\r\n        uint audienceID;\r\n        uint[] songsPurchased;\r\n        mapping(uint => bool) isSongPurchased;\r\n    }\r\n    \r\n    struct Song {\r\n        string songName;\r\n        string artistName;\r\n        string genre;\r\n        string hash;\r\n        uint songID;\r\n        uint price;\r\n        address payable artistAddress;\r\n    }\r\n    \r\n    mapping (address => UserType) identifyUser;\r\n    mapping (address => Artist) allArtists;\r\n    mapping (address => Audience) allAudience;\r\n    mapping (uint => Song) allSongs;\r\n    \r\n    constructor() {\r\n        audienceIDTracker = 0;\r\n        artistIDTracker = 0;\r\n        songIDTracker = 0;\r\n    }\r\n    \r\n    function checkUser() public view returns(UserType) {\r\n        return identifyUser[msg.sender];\r\n    }\r\n    \r\n    function addNewArtist(string memory _name) public {\r\n        artistIDTracker += 1;\r\n        \r\n        Artist memory newArtist;\r\n        newArtist.name = _name;\r\n        newArtist.artistID = artistIDTracker;\r\n        newArtist.rating = 0;\r\n        \r\n        allArtists[msg.sender] = newArtist;\r\n        identifyUser[msg.sender] = UserType.ARTIST;\r\n    }\r\n    \r\n    function addNewAudience(string memory _name) public {\r\n        audienceIDTracker += 1;\r\n        \r\n        Audience storage newAudience = allAudience[msg.sender];\r\n        newAudience.name = _name;\r\n        newAudience.audienceID = audienceIDTracker;\r\n\r\n        identifyUser[msg.sender] = UserType.AUDIENCE;\r\n    }\r\n    \r\n    function getAudienceDetails() public view returns(string memory, uint, uint[] memory){\r\n        return (allAudience[msg.sender].name, allAudience[msg.sender].audienceID, allAudience[msg.sender].songsPurchased);\r\n    }\r\n    \r\n    function getArtistDetails() public view returns(string memory, uint, uint, uint[] memory){\r\n        return (allArtists[msg.sender].name, \r\n            allArtists[msg.sender].artistID, \r\n            allArtists[msg.sender].rating, \r\n            allArtists[msg.sender].songsPublished\r\n        );   \r\n    }\r\n    \r\n    event songAdded (\r\n        uint songID,\r\n        string songName,\r\n        string artistName,\r\n        uint price\r\n    );\r\n    \r\n    function addSong(string memory _name, string memory _genre, string memory _hash, uint _price) public {\r\n        require(identifyUser[msg.sender] == UserType.ARTIST, \"Not an artist.\");\r\n        \r\n        songIDTracker += 1;\r\n        \r\n        Song memory newSong;\r\n        newSong.songID = songIDTracker;\r\n        newSong.songName = _name;\r\n        newSong.artistName = allArtists[msg.sender].name;\r\n        newSong.genre = _genre;\r\n        newSong.hash = _hash;\r\n        newSong.price = _price;\r\n        newSong.artistAddress = payable(msg.sender);\r\n        \r\n        allSongs[songIDTracker] = newSong;\r\n        allArtists[msg.sender].songsPublished.push(songIDTracker);\r\n        \r\n        emit songAdded(newSong.songID, newSong.songName, newSong.artistName, newSong.price);\r\n    }\r\n    \r\n    event songPurchased (\r\n        uint songID,\r\n        string songName,\r\n        string audienceName,\r\n        uint price\r\n    );\r\n    \r\n    function buySong(uint _songID) public payable {\r\n        require(identifyUser[msg.sender] == UserType.AUDIENCE, \"Not an audience member.\");\r\n        require(!allAudience[msg.sender].isSongPurchased[_songID], \"Cannot buy the song twice.\");\r\n        \r\n        Song memory curSong = allSongs[_songID];\r\n        \r\n        require(msg.value == (curSong.price * 1 wei), \"Amount payed does not match price of the song.\");\r\n        require(msg.sender.balance > msg.value, \"Insufficient balance.\");\r\n\r\n        curSong.artistAddress.transfer(msg.value);\r\n        \r\n        allAudience[msg.sender].songsPurchased.push(_songID);\r\n        allAudience[msg.sender].isSongPurchased[_songID] = true;\r\n        \r\n        emit songPurchased(curSong.songID, curSong.songName, allAudience[msg.sender].name, msg.value);\r\n    }\r\n    \r\n    function getSongDetails(uint _songID) public view returns(string memory, string memory, string memory, string memory, uint){\r\n        return (allSongs[_songID].songName, \r\n            allSongs[_songID].artistName, \r\n            allSongs[_songID].genre, \r\n            allSongs[_songID].hash,\r\n            allSongs[_songID].price\r\n        );\r\n    }\r\n    \r\n}\r\n\r\n// contract User {\r\n//     address walletID;\r\n//     string public name;\r\n//     bool newUser;\r\n    \r\n//     // constructor() public (){\r\n        \r\n//     // }\r\n    \r\n//     // function buyToken() {\r\n        \r\n//     // }\r\n    \r\n    \r\n// }\r\n\r\n// contract Artist is User {\r\n//     uint ArtistID;\r\n//     uint public rating;\r\n//     uint[] songsPublished;\r\n    \r\n//     // function addSong() {\r\n        \r\n//     // }\r\n// }\r\n\r\n// contract Audience is User {\r\n//     uint AudienceID;\r\n//     uint[] songsPurchased;\r\n    \r\n//     // function buySong(uint SongID) {\r\n        \r\n//     // }\r\n    \r\n//     // function sponserArtist(uint ArtistID) {\r\n        \r\n//     // }\r\n// }\r\n\r\n// contract Song {\r\n//     uint public SongID;\r\n//     string public name;\r\n//     uint public ArtistID;\r\n//     string public genre;\r\n//     uint public releaseDate;\r\n//     uint cost;\r\n    \r\n// }",
  "sourcePath": "C:\\Users\\kalra\\Desktop\\college\\sem7\\IBC\\blockstudio\\App\\contracts\\blockstudio.sol",
  "compiler": {
    "name": "solc",
    "version": "0.8.9+commit.e5eed63a.Emscripten.clang"
  },
  "schemaVersion": "3.4.3",
  "updatedAt": "2021-11-21T15:28:45.152Z",
  "networkType": "ethereum",
  "devdoc": {
    "kind": "dev",
    "methods": {},
    "version": 1
  },
  "userdoc": {
    "kind": "user",
    "methods": {},
    "version": 1
  }
}