{
  "contractName": "blockstudio",
  "abi": [
    {
      "inputs": [],
      "stateMutability": "nonpayable",
      "type": "constructor"
    },
    {
      "inputs": [],
      "name": "checkUser",
      "outputs": [
        {
          "internalType": "enum blockstudio.UserType",
          "name": "",
          "type": "uint8"
        }
      ],
      "stateMutability": "view",
      "type": "function",
      "constant": true
    },
    {
      "inputs": [
        {
          "internalType": "string",
          "name": "_name",
          "type": "string"
        }
      ],
      "name": "addNewArtist",
      "outputs": [],
      "stateMutability": "nonpayable",
      "type": "function"
    },
    {
      "inputs": [
        {
          "internalType": "string",
          "name": "_name",
          "type": "string"
        }
      ],
      "name": "addNewAudience",
      "outputs": [],
      "stateMutability": "nonpayable",
      "type": "function"
    },
    {
      "inputs": [],
      "name": "getAudienceDetails",
      "outputs": [
        {
          "internalType": "string",
          "name": "",
          "type": "string"
        },
        {
          "internalType": "uint256",
          "name": "",
          "type": "uint256"
        },
        {
          "internalType": "uint256[]",
          "name": "",
          "type": "uint256[]"
        }
      ],
      "stateMutability": "view",
      "type": "function",
      "constant": true
    },
    {
      "inputs": [],
      "name": "getArtistDetails",
      "outputs": [
        {
          "internalType": "string",
          "name": "",
          "type": "string"
        },
        {
          "internalType": "uint256",
          "name": "",
          "type": "uint256"
        },
        {
          "internalType": "uint256",
          "name": "",
          "type": "uint256"
        },
        {
          "internalType": "uint256[]",
          "name": "",
          "type": "uint256[]"
        }
      ],
      "stateMutability": "view",
      "type": "function",
      "constant": true
    }
  ],
  "bytecode": "0x608060405234801561001057600080fd5b50600080819055506000600181905550610de18061002f6000396000f3fe608060405234801561001057600080fd5b50600436106100575760003560e01c80631a0cd3431461005c57806342490c4b146100785780637f7a451014610094578063bddff768146100b5578063c1562547146100d5575b600080fd5b610076600480360381019061007191906109f3565b6100f3565b005b610092600480360381019061008d91906109f3565b61021b565b005b61009c610359565b6040516100ac9493929190610b9b565b60405180910390f35b6100bd610556565b6040516100cc93929190610bee565b60405180910390f35b6100dd61070c565b6040516100ea9190610caa565b60405180910390f35b60016000808282546101059190610cf4565b92505081905550610114610760565b81816000018190525060005481602001818152505080600460003373ffffffffffffffffffffffffffffffffffffffff1673ffffffffffffffffffffffffffffffffffffffff1681526020019081526020016000206000820151816000019080519060200190610185929190610781565b506020820151816001015560408201518160020190805190602001906101ac929190610807565b5090505060028060003373ffffffffffffffffffffffffffffffffffffffff1673ffffffffffffffffffffffffffffffffffffffff16815260200190815260200160002060006101000a81548160ff0219169083600281111561021257610211610c33565b5b02179055505050565b600180600082825461022d9190610cf4565b9250508190555061023c610854565b818160000181905250600154816020018181525050600081604001818152505080600360003373ffffffffffffffffffffffffffffffffffffffff1673ffffffffffffffffffffffffffffffffffffffff16815260200190815260200160002060008201518160000190805190602001906102b8929190610781565b50602082015181600101556040820151816002015560608201518160030190805190602001906102e9929190610807565b509050506001600260003373ffffffffffffffffffffffffffffffffffffffff1673ffffffffffffffffffffffffffffffffffffffff16815260200190815260200160002060006101000a81548160ff021916908360028111156103505761034f610c33565b5b02179055505050565b60606000806060600360003373ffffffffffffffffffffffffffffffffffffffff1673ffffffffffffffffffffffffffffffffffffffff168152602001908152602001600020600001600360003373ffffffffffffffffffffffffffffffffffffffff1673ffffffffffffffffffffffffffffffffffffffff16815260200190815260200160002060010154600360003373ffffffffffffffffffffffffffffffffffffffff1673ffffffffffffffffffffffffffffffffffffffff16815260200190815260200160002060020154600360003373ffffffffffffffffffffffffffffffffffffffff1673ffffffffffffffffffffffffffffffffffffffff16815260200190815260200160002060030183805461047690610d79565b80601f01602080910402602001604051908101604052809291908181526020018280546104a290610d79565b80156104ef5780601f106104c4576101008083540402835291602001916104ef565b820191906000526020600020905b8154815290600101906020018083116104d257829003601f168201915b505050505093508080548060200260200160405190810160405280929190818152602001828054801561054157602002820191906000526020600020905b81548152602001906001019080831161052d575b50505050509050935093509350935090919293565b606060006060600460003373ffffffffffffffffffffffffffffffffffffffff1673ffffffffffffffffffffffffffffffffffffffff168152602001908152602001600020600001600460003373ffffffffffffffffffffffffffffffffffffffff1673ffffffffffffffffffffffffffffffffffffffff16815260200190815260200160002060010154600460003373ffffffffffffffffffffffffffffffffffffffff1673ffffffffffffffffffffffffffffffffffffffff16815260200190815260200160002060020182805461062f90610d79565b80601f016020809104026020016040519081016040528092919081815260200182805461065b90610d79565b80156106a85780601f1061067d576101008083540402835291602001916106a8565b820191906000526020600020905b81548152906001019060200180831161068b57829003601f168201915b50505050509250808054806020026020016040519081016040528092919081815260200182805480156106fa57602002820191906000526020600020905b8154815260200190600101908083116106e6575b50505050509050925092509250909192565b6000600260003373ffffffffffffffffffffffffffffffffffffffff1673ffffffffffffffffffffffffffffffffffffffff16815260200190815260200160002060009054906101000a900460ff16905090565b60405180606001604052806060815260200160008152602001606081525090565b82805461078d90610d79565b90600052602060002090601f0160209004810192826107af57600085556107f6565b82601f106107c857805160ff19168380011785556107f6565b828001600101855582156107f6579182015b828111156107f55782518255916020019190600101906107da565b5b509050610803919061087c565b5090565b828054828255906000526020600020908101928215610843579160200282015b82811115610842578251825591602001919060010190610827565b5b509050610850919061087c565b5090565b6040518060800160405280606081526020016000815260200160008152602001606081525090565b5b8082111561089557600081600090555060010161087d565b5090565b6000604051905090565b600080fd5b600080fd5b600080fd5b600080fd5b6000601f19601f8301169050919050565b7f4e487b7100000000000000000000000000000000000000000000000000000000600052604160045260246000fd5b610900826108b7565b810181811067ffffffffffffffff8211171561091f5761091e6108c8565b5b80604052505050565b6000610932610899565b905061093e82826108f7565b919050565b600067ffffffffffffffff82111561095e5761095d6108c8565b5b610967826108b7565b9050602081019050919050565b82818337600083830152505050565b600061099661099184610943565b610928565b9050828152602081018484840111156109b2576109b16108b2565b5b6109bd848285610974565b509392505050565b600082601f8301126109da576109d96108ad565b5b81356109ea848260208601610983565b91505092915050565b600060208284031215610a0957610a086108a3565b5b600082013567ffffffffffffffff811115610a2757610a266108a8565b5b610a33848285016109c5565b91505092915050565b600081519050919050565b600082825260208201905092915050565b60005b83811015610a76578082015181840152602081019050610a5b565b83811115610a85576000848401525b50505050565b6000610a9682610a3c565b610aa08185610a47565b9350610ab0818560208601610a58565b610ab9816108b7565b840191505092915050565b6000819050919050565b610ad781610ac4565b82525050565b600081519050919050565b600082825260208201905092915050565b6000819050602082019050919050565b610b1281610ac4565b82525050565b6000610b248383610b09565b60208301905092915050565b6000602082019050919050565b6000610b4882610add565b610b528185610ae8565b9350610b5d83610af9565b8060005b83811015610b8e578151610b758882610b18565b9750610b8083610b30565b925050600181019050610b61565b5085935050505092915050565b60006080820190508181036000830152610bb58187610a8b565b9050610bc46020830186610ace565b610bd16040830185610ace565b8181036060830152610be38184610b3d565b905095945050505050565b60006060820190508181036000830152610c088186610a8b565b9050610c176020830185610ace565b8181036040830152610c298184610b3d565b9050949350505050565b7f4e487b7100000000000000000000000000000000000000000000000000000000600052602160045260246000fd5b60038110610c7357610c72610c33565b5b50565b6000819050610c8482610c62565b919050565b6000610c9482610c76565b9050919050565b610ca481610c89565b82525050565b6000602082019050610cbf6000830184610c9b565b92915050565b7f4e487b7100000000000000000000000000000000000000000000000000000000600052601160045260246000fd5b6000610cff82610ac4565b9150610d0a83610ac4565b9250827fffffffffffffffffffffffffffffffffffffffffffffffffffffffffffffffff03821115610d3f57610d3e610cc5565b5b828201905092915050565b7f4e487b7100000000000000000000000000000000000000000000000000000000600052602260045260246000fd5b60006002820490506001821680610d9157607f821691505b60208210811415610da557610da4610d4a565b5b5091905056fea2646970667358221220d9fc6175d2c1313bfe67ec859061e58a5c7f4cc2fd32e43644024beb1afd441b64736f6c63430008090033",
  "immutableReferences": {},
  "source": "pragma solidity >=0.7.0 <0.9.0;\n\ncontract blockstudio {\n    uint256 audienceIDTracker;\n    uint256 artistIDTracker;\n\n    enum UserType {\n        UNDEFINED,\n        ARTIST,\n        AUDIENCE\n    }\n\n    struct Artist {\n        string name;\n        uint256 ArtistID;\n        uint256 rating;\n        uint256[] songsPublished;\n    }\n\n    struct Audience {\n        string name;\n        uint256 AudienceID;\n        uint256[] songsPurchased;\n    }\n\n    mapping(address => UserType) identifyUser;\n    mapping(address => Artist) allArtists;\n    mapping(address => Audience) allAudience;\n\n    constructor() {\n        audienceIDTracker = 0;\n        artistIDTracker = 0;\n    }\n\n    function checkUser() external view returns (UserType) {\n        return identifyUser[msg.sender];\n    }\n\n    function addNewArtist(string memory _name) public {\n        artistIDTracker += 1;\n\n        Artist memory newArtist;\n        newArtist.name = _name;\n        newArtist.ArtistID = artistIDTracker;\n        newArtist.rating = 0;\n\n        allArtists[msg.sender] = newArtist;\n        identifyUser[msg.sender] = UserType.ARTIST;\n    }\n\n    function addNewAudience(string memory _name) public {\n        audienceIDTracker += 1;\n\n        Audience memory newAudience;\n        newAudience.name = _name;\n        newAudience.AudienceID = audienceIDTracker;\n\n        allAudience[msg.sender] = newAudience;\n        identifyUser[msg.sender] = UserType.AUDIENCE;\n    }\n\n    function getAudienceDetails()\n        public\n        view\n        returns (\n            string memory,\n            uint256,\n            uint256[] memory\n        )\n    {\n        return (\n            allAudience[msg.sender].name,\n            allAudience[msg.sender].AudienceID,\n            allAudience[msg.sender].songsPurchased\n        );\n    }\n\n    function getArtistDetails()\n        public\n        view\n        returns (\n            string memory,\n            uint256,\n            uint256,\n            uint256[] memory\n        )\n    {\n        return (\n            allArtists[msg.sender].name,\n            allArtists[msg.sender].ArtistID,\n            allArtists[msg.sender].rating,\n            allArtists[msg.sender].songsPublished\n        );\n    }\n}\n\n// contract User {\n//     address walletID;\n//     string public name;\n//     bool newUser;\n\n//     // constructor() public (){\n\n//     // }\n\n//     // function buyToken() {\n\n//     // }\n\n// }\n\n// contract Artist is User {\n//     uint ArtistID;\n//     uint public rating;\n//     uint[] songsPublished;\n\n//     // function addSong() {\n\n//     // }\n// }\n\n// contract Audience is User {\n//     uint AudienceID;\n//     uint[] songsPurchased;\n\n//     // function buySong(uint SongID) {\n\n//     // }\n\n//     // function sponserArtist(uint ArtistID) {\n\n//     // }\n// }\n\n// contract Song {\n//     uint public SongID;\n//     string public name;\n//     uint public ArtistID;\n//     string public genre;\n//     uint public releaseDate;\n//     uint cost;\n\n// }\n",
  "sourcePath": "/home/adwit/Desktop/blockstudio/App/contracts/blockstudio.sol",
  "compiler": {
    "name": "solc",
    "version": "0.8.9+commit.e5eed63a.Emscripten.clang"
  },
  "schemaVersion": "3.4.3",
  "updatedAt": "2021-11-20T20:12:58.853Z",
  "networkType": "ethereum",
  "devdoc": {
    "kind": "dev",
    "methods": {},
    "version": 1
  },
  "userdoc": {
    "kind": "user",
    "methods": {},
    "version": 1
  }
}