{
  "contractName": "blockstudio",
  "abi": [
    {
      "inputs": [],
      "stateMutability": "nonpayable",
      "type": "constructor"
    },
    {
      "anonymous": false,
      "inputs": [
        {
          "indexed": false,
          "internalType": "uint256",
          "name": "songID",
          "type": "uint256"
        },
        {
          "indexed": false,
          "internalType": "string",
          "name": "songName",
          "type": "string"
        },
        {
          "indexed": false,
          "internalType": "string",
          "name": "artistName",
          "type": "string"
        },
        {
          "indexed": false,
          "internalType": "uint256",
          "name": "price",
          "type": "uint256"
        }
      ],
      "name": "songAdded",
      "type": "event"
    },
    {
      "anonymous": false,
      "inputs": [
        {
          "indexed": false,
          "internalType": "uint256",
          "name": "songID",
          "type": "uint256"
        },
        {
          "indexed": false,
          "internalType": "string",
          "name": "songName",
          "type": "string"
        },
        {
          "indexed": false,
          "internalType": "string",
          "name": "audienceName",
          "type": "string"
        },
        {
          "indexed": false,
          "internalType": "uint256",
          "name": "price",
          "type": "uint256"
        }
      ],
      "name": "songPurchased",
      "type": "event"
    },
    {
      "inputs": [],
      "name": "getNumSongs",
      "outputs": [
        {
          "internalType": "uint256",
          "name": "",
          "type": "uint256"
        }
      ],
      "stateMutability": "view",
      "type": "function",
      "constant": true
    },
    {
      "inputs": [],
      "name": "checkUser",
      "outputs": [
        {
          "internalType": "enum blockstudio.UserType",
          "name": "",
          "type": "uint8"
        }
      ],
      "stateMutability": "view",
      "type": "function",
      "constant": true
    },
    {
      "inputs": [
        {
          "internalType": "string",
          "name": "_name",
          "type": "string"
        }
      ],
      "name": "addNewArtist",
      "outputs": [],
      "stateMutability": "nonpayable",
      "type": "function"
    },
    {
      "inputs": [
        {
          "internalType": "string",
          "name": "_name",
          "type": "string"
        }
      ],
      "name": "addNewAudience",
      "outputs": [],
      "stateMutability": "nonpayable",
      "type": "function"
    },
    {
      "inputs": [],
      "name": "getAudienceDetails",
      "outputs": [
        {
          "internalType": "string",
          "name": "",
          "type": "string"
        },
        {
          "internalType": "uint256",
          "name": "",
          "type": "uint256"
        },
        {
          "internalType": "uint256[]",
          "name": "",
          "type": "uint256[]"
        }
      ],
      "stateMutability": "view",
      "type": "function",
      "constant": true
    },
    {
      "inputs": [],
      "name": "getArtistDetails",
      "outputs": [
        {
          "internalType": "string",
          "name": "",
          "type": "string"
        },
        {
          "internalType": "uint256",
          "name": "",
          "type": "uint256"
        },
        {
          "internalType": "uint256",
          "name": "",
          "type": "uint256"
        },
        {
          "internalType": "uint256[]",
          "name": "",
          "type": "uint256[]"
        }
      ],
      "stateMutability": "view",
      "type": "function",
      "constant": true
    },
    {
      "inputs": [
        {
          "internalType": "string",
          "name": "_name",
          "type": "string"
        },
        {
          "internalType": "string",
          "name": "_genre",
          "type": "string"
        },
        {
          "internalType": "string",
          "name": "_hash",
          "type": "string"
        },
        {
          "internalType": "uint256",
          "name": "_price",
          "type": "uint256"
        }
      ],
      "name": "addSong",
      "outputs": [],
      "stateMutability": "nonpayable",
      "type": "function"
    },
    {
      "inputs": [
        {
          "internalType": "uint256",
          "name": "_songID",
          "type": "uint256"
        }
      ],
      "name": "buySong",
      "outputs": [],
      "stateMutability": "payable",
      "type": "function",
      "payable": true
    },
    {
      "inputs": [
        {
          "internalType": "uint256",
          "name": "_songID",
          "type": "uint256"
        }
      ],
      "name": "getSongDetails",
      "outputs": [
        {
          "internalType": "string",
          "name": "",
          "type": "string"
        },
        {
          "internalType": "string",
          "name": "",
          "type": "string"
        },
        {
          "internalType": "string",
          "name": "",
          "type": "string"
        },
        {
          "internalType": "string",
          "name": "",
          "type": "string"
        },
        {
          "internalType": "uint256",
          "name": "",
          "type": "uint256"
        }
      ],
      "stateMutability": "view",
      "type": "function",
      "constant": true
    }
  ],
  "bytecode": "0x608060405234801561001057600080fd5b506000808190555060006001819055506000600281905550612165806100376000396000f3fe6080604052600436106100865760003560e01c806377822fc21161005957806377822fc2146101245780637f7a451014610165578063bddff76814610193578063c1562547146101c0578063f29b4165146101eb57610086565b80630c58d5b11461008b5780631a0cd343146100b657806342490c4b146100df578063606a017514610108575b600080fd5b34801561009757600080fd5b506100a0610214565b6040516100ad91906116c1565b60405180910390f35b3480156100c257600080fd5b506100dd60048036038101906100d89190611836565b61021e565b005b3480156100eb57600080fd5b5061010660048036038101906101019190611836565b61030a565b005b610122600480360381019061011d91906118ab565b610448565b005b34801561013057600080fd5b5061014b600480360381019061014691906118ab565b610ac4565b60405161015c959493929190611960565b60405180910390f35b34801561017157600080fd5b5061017a610d7e565b60405161018a9493929190611a8d565b60405180910390f35b34801561019f57600080fd5b506101a8610f7b565b6040516101b793929190611ae0565b60405180910390f35b3480156101cc57600080fd5b506101d5611131565b6040516101e29190611b9c565b60405180910390f35b3480156101f757600080fd5b50610212600480360381019061020d9190611bb7565b611185565b005b6000600254905090565b60016000808282546102309190611ca1565b925050819055506000600560003373ffffffffffffffffffffffffffffffffffffffff1673ffffffffffffffffffffffffffffffffffffffff16815260200190815260200160002090508181600001908051906020019061029292919061153d565b5060005481600101819055506002600360003373ffffffffffffffffffffffffffffffffffffffff1673ffffffffffffffffffffffffffffffffffffffff16815260200190815260200160002060006101000a81548160ff0219169083600281111561030157610300611b25565b5b02179055505050565b600180600082825461031c9190611ca1565b9250508190555061032b6115c3565b818160000181905250600154816020018181525050600081604001818152505080600460003373ffffffffffffffffffffffffffffffffffffffff1673ffffffffffffffffffffffffffffffffffffffff16815260200190815260200160002060008201518160000190805190602001906103a792919061153d565b50602082015181600101556040820151816002015560608201518160030190805190602001906103d89291906115eb565b509050506001600360003373ffffffffffffffffffffffffffffffffffffffff1673ffffffffffffffffffffffffffffffffffffffff16815260200190815260200160002060006101000a81548160ff0219169083600281111561043f5761043e611b25565b5b02179055505050565b60028081111561045b5761045a611b25565b5b600360003373ffffffffffffffffffffffffffffffffffffffff1673ffffffffffffffffffffffffffffffffffffffff16815260200190815260200160002060009054906101000a900460ff1660028111156104ba576104b9611b25565b5b146104fa576040517f08c379a00000000000000000000000000000000000000000000000000000000081526004016104f190611d43565b60405180910390fd5b600560003373ffffffffffffffffffffffffffffffffffffffff1673ffffffffffffffffffffffffffffffffffffffff168152602001908152602001600020600301600082815260200190815260200160002060009054906101000a900460ff161561059b576040517f08c379a000000000000000000000000000000000000000000000000000000000815260040161059290611daf565b60405180910390fd5b6000600660008381526020019081526020016000206040518060e00160405290816000820180546105cb90611dfe565b80601f01602080910402602001604051908101604052809291908181526020018280546105f790611dfe565b80156106445780601f1061061957610100808354040283529160200191610644565b820191906000526020600020905b81548152906001019060200180831161062757829003601f168201915b5050505050815260200160018201805461065d90611dfe565b80601f016020809104026020016040519081016040528092919081815260200182805461068990611dfe565b80156106d65780601f106106ab576101008083540402835291602001916106d6565b820191906000526020600020905b8154815290600101906020018083116106b957829003601f168201915b505050505081526020016002820180546106ef90611dfe565b80601f016020809104026020016040519081016040528092919081815260200182805461071b90611dfe565b80156107685780601f1061073d57610100808354040283529160200191610768565b820191906000526020600020905b81548152906001019060200180831161074b57829003601f168201915b5050505050815260200160038201805461078190611dfe565b80601f01602080910402602001604051908101604052809291908181526020018280546107ad90611dfe565b80156107fa5780601f106107cf576101008083540402835291602001916107fa565b820191906000526020600020905b8154815290600101906020018083116107dd57829003601f168201915b5050505050815260200160048201548152602001600582015481526020016006820160009054906101000a900473ffffffffffffffffffffffffffffffffffffffff1673ffffffffffffffffffffffffffffffffffffffff1673ffffffffffffffffffffffffffffffffffffffff1681525050905060018160a001516108809190611e30565b34146108c1576040517f08c379a00000000000000000000000000000000000000000000000000000000081526004016108b890611efc565b60405180910390fd5b343373ffffffffffffffffffffffffffffffffffffffff16311161091a576040517f08c379a000000000000000000000000000000000000000000000000000000000815260040161091190611f68565b60405180910390fd5b8060c0015173ffffffffffffffffffffffffffffffffffffffff166108fc349081150290604051600060405180830381858888f19350505050158015610964573d6000803e3d6000fd5b50600560003373ffffffffffffffffffffffffffffffffffffffff1673ffffffffffffffffffffffffffffffffffffffff1681526020019081526020016000206002018290806001815401808255809150506001900390600052602060002001600090919091909150556001600560003373ffffffffffffffffffffffffffffffffffffffff1673ffffffffffffffffffffffffffffffffffffffff168152602001908152602001600020600301600084815260200190815260200160002060006101000a81548160ff0219169083151502179055507f4d5d3c0b738fd8f4b26fa11966a64c4b072cb5837aadaf02808df71f883a5d5181608001518260000151600560003373ffffffffffffffffffffffffffffffffffffffff1673ffffffffffffffffffffffffffffffffffffffff16815260200190815260200160002060000134604051610ab8949392919061201d565b60405180910390a15050565b6060806060806000600660008781526020019081526020016000206000016006600088815260200190815260200160002060010160066000898152602001908152602001600020600201600660008a8152602001908152602001600020600301600660008b815260200190815260200160002060050154848054610b4790611dfe565b80601f0160208091040260200160405190810160405280929190818152602001828054610b7390611dfe565b8015610bc05780601f10610b9557610100808354040283529160200191610bc0565b820191906000526020600020905b815481529060010190602001808311610ba357829003601f168201915b50505050509450838054610bd390611dfe565b80601f0160208091040260200160405190810160405280929190818152602001828054610bff90611dfe565b8015610c4c5780601f10610c2157610100808354040283529160200191610c4c565b820191906000526020600020905b815481529060010190602001808311610c2f57829003601f168201915b50505050509350828054610c5f90611dfe565b80601f0160208091040260200160405190810160405280929190818152602001828054610c8b90611dfe565b8015610cd85780601f10610cad57610100808354040283529160200191610cd8565b820191906000526020600020905b815481529060010190602001808311610cbb57829003601f168201915b50505050509250818054610ceb90611dfe565b80601f0160208091040260200160405190810160405280929190818152602001828054610d1790611dfe565b8015610d645780601f10610d3957610100808354040283529160200191610d64565b820191906000526020600020905b815481529060010190602001808311610d4757829003601f168201915b505050505091509450945094509450945091939590929450565b60606000806060600460003373ffffffffffffffffffffffffffffffffffffffff1673ffffffffffffffffffffffffffffffffffffffff168152602001908152602001600020600001600460003373ffffffffffffffffffffffffffffffffffffffff1673ffffffffffffffffffffffffffffffffffffffff16815260200190815260200160002060010154600460003373ffffffffffffffffffffffffffffffffffffffff1673ffffffffffffffffffffffffffffffffffffffff16815260200190815260200160002060020154600460003373ffffffffffffffffffffffffffffffffffffffff1673ffffffffffffffffffffffffffffffffffffffff168152602001908152602001600020600301838054610e9b90611dfe565b80601f0160208091040260200160405190810160405280929190818152602001828054610ec790611dfe565b8015610f145780601f10610ee957610100808354040283529160200191610f14565b820191906000526020600020905b815481529060010190602001808311610ef757829003601f168201915b5050505050935080805480602002602001604051908101604052809291908181526020018280548015610f6657602002820191906000526020600020905b815481526020019060010190808311610f52575b50505050509050935093509350935090919293565b606060006060600560003373ffffffffffffffffffffffffffffffffffffffff1673ffffffffffffffffffffffffffffffffffffffff168152602001908152602001600020600001600560003373ffffffffffffffffffffffffffffffffffffffff1673ffffffffffffffffffffffffffffffffffffffff16815260200190815260200160002060010154600560003373ffffffffffffffffffffffffffffffffffffffff1673ffffffffffffffffffffffffffffffffffffffff16815260200190815260200160002060020182805461105490611dfe565b80601f016020809104026020016040519081016040528092919081815260200182805461108090611dfe565b80156110cd5780601f106110a2576101008083540402835291602001916110cd565b820191906000526020600020905b8154815290600101906020018083116110b057829003601f168201915b505050505092508080548060200260200160405190810160405280929190818152602001828054801561111f57602002820191906000526020600020905b81548152602001906001019080831161110b575b50505050509050925092509250909192565b6000600360003373ffffffffffffffffffffffffffffffffffffffff1673ffffffffffffffffffffffffffffffffffffffff16815260200190815260200160002060009054906101000a900460ff16905090565b6001600281111561119957611198611b25565b5b600360003373ffffffffffffffffffffffffffffffffffffffff1673ffffffffffffffffffffffffffffffffffffffff16815260200190815260200160002060009054906101000a900460ff1660028111156111f8576111f7611b25565b5b14611238576040517f08c379a000000000000000000000000000000000000000000000000000000000815260040161122f906120bc565b60405180910390fd5b60016002600082825461124b9190611ca1565b9250508190555061125a611638565b600254816080018181525050848160000181905250600460003373ffffffffffffffffffffffffffffffffffffffff1673ffffffffffffffffffffffffffffffffffffffff16815260200190815260200160002060000180546112bc90611dfe565b80601f01602080910402602001604051908101604052809291908181526020018280546112e890611dfe565b80156113355780601f1061130a57610100808354040283529160200191611335565b820191906000526020600020905b81548152906001019060200180831161131857829003601f168201915b50505050508160200181905250838160400181905250828160600181905250818160a0018181525050338160c0019073ffffffffffffffffffffffffffffffffffffffff16908173ffffffffffffffffffffffffffffffffffffffff16815250508060066000600254815260200190815260200160002060008201518160000190805190602001906113c892919061153d565b5060208201518160010190805190602001906113e592919061153d565b50604082015181600201908051906020019061140292919061153d565b50606082015181600301908051906020019061141f92919061153d565b506080820151816004015560a0820151816005015560c08201518160060160006101000a81548173ffffffffffffffffffffffffffffffffffffffff021916908373ffffffffffffffffffffffffffffffffffffffff160217905550905050600460003373ffffffffffffffffffffffffffffffffffffffff1673ffffffffffffffffffffffffffffffffffffffff16815260200190815260200160002060030160025490806001815401808255809150506001900390600052602060002001600090919091909150557f8c6d5283b06a4f84805865678e0a51043ab4788bdd609db7c5cbe4c6fce5c97f8160800151826000015183602001518460a0015160405161152e94939291906120dc565b60405180910390a15050505050565b82805461154990611dfe565b90600052602060002090601f01602090048101928261156b57600085556115b2565b82601f1061158457805160ff19168380011785556115b2565b828001600101855582156115b2579182015b828111156115b1578251825591602001919060010190611596565b5b5090506115bf919061168b565b5090565b6040518060800160405280606081526020016000815260200160008152602001606081525090565b828054828255906000526020600020908101928215611627579160200282015b8281111561162657825182559160200191906001019061160b565b5b509050611634919061168b565b5090565b6040518060e00160405280606081526020016060815260200160608152602001606081526020016000815260200160008152602001600073ffffffffffffffffffffffffffffffffffffffff1681525090565b5b808211156116a457600081600090555060010161168c565b5090565b6000819050919050565b6116bb816116a8565b82525050565b60006020820190506116d660008301846116b2565b92915050565b6000604051905090565b600080fd5b600080fd5b600080fd5b600080fd5b6000601f19601f8301169050919050565b7f4e487b7100000000000000000000000000000000000000000000000000000000600052604160045260246000fd5b611743826116fa565b810181811067ffffffffffffffff821117156117625761176161170b565b5b80604052505050565b60006117756116dc565b9050611781828261173a565b919050565b600067ffffffffffffffff8211156117a1576117a061170b565b5b6117aa826116fa565b9050602081019050919050565b82818337600083830152505050565b60006117d96117d484611786565b61176b565b9050828152602081018484840111156117f5576117f46116f5565b5b6118008482856117b7565b509392505050565b600082601f83011261181d5761181c6116f0565b5b813561182d8482602086016117c6565b91505092915050565b60006020828403121561184c5761184b6116e6565b5b600082013567ffffffffffffffff81111561186a576118696116eb565b5b61187684828501611808565b91505092915050565b611888816116a8565b811461189357600080fd5b50565b6000813590506118a58161187f565b92915050565b6000602082840312156118c1576118c06116e6565b5b60006118cf84828501611896565b91505092915050565b600081519050919050565b600082825260208201905092915050565b60005b838110156119125780820151818401526020810190506118f7565b83811115611921576000848401525b50505050565b6000611932826118d8565b61193c81856118e3565b935061194c8185602086016118f4565b611955816116fa565b840191505092915050565b600060a082019050818103600083015261197a8188611927565b9050818103602083015261198e8187611927565b905081810360408301526119a28186611927565b905081810360608301526119b68185611927565b90506119c560808301846116b2565b9695505050505050565b600081519050919050565b600082825260208201905092915050565b6000819050602082019050919050565b611a04816116a8565b82525050565b6000611a1683836119fb565b60208301905092915050565b6000602082019050919050565b6000611a3a826119cf565b611a4481856119da565b9350611a4f836119eb565b8060005b83811015611a80578151611a678882611a0a565b9750611a7283611a22565b925050600181019050611a53565b5085935050505092915050565b60006080820190508181036000830152611aa78187611927565b9050611ab660208301866116b2565b611ac360408301856116b2565b8181036060830152611ad58184611a2f565b905095945050505050565b60006060820190508181036000830152611afa8186611927565b9050611b0960208301856116b2565b8181036040830152611b1b8184611a2f565b9050949350505050565b7f4e487b7100000000000000000000000000000000000000000000000000000000600052602160045260246000fd5b60038110611b6557611b64611b25565b5b50565b6000819050611b7682611b54565b919050565b6000611b8682611b68565b9050919050565b611b9681611b7b565b82525050565b6000602082019050611bb16000830184611b8d565b92915050565b60008060008060808587031215611bd157611bd06116e6565b5b600085013567ffffffffffffffff811115611bef57611bee6116eb565b5b611bfb87828801611808565b945050602085013567ffffffffffffffff811115611c1c57611c1b6116eb565b5b611c2887828801611808565b935050604085013567ffffffffffffffff811115611c4957611c486116eb565b5b611c5587828801611808565b9250506060611c6687828801611896565b91505092959194509250565b7f4e487b7100000000000000000000000000000000000000000000000000000000600052601160045260246000fd5b6000611cac826116a8565b9150611cb7836116a8565b9250827fffffffffffffffffffffffffffffffffffffffffffffffffffffffffffffffff03821115611cec57611ceb611c72565b5b828201905092915050565b7f4e6f7420616e2061756469656e6365206d656d6265722e000000000000000000600082015250565b6000611d2d6017836118e3565b9150611d3882611cf7565b602082019050919050565b60006020820190508181036000830152611d5c81611d20565b9050919050565b7f43616e6e6f74206275792074686520736f6e672074776963652e000000000000600082015250565b6000611d99601a836118e3565b9150611da482611d63565b602082019050919050565b60006020820190508181036000830152611dc881611d8c565b9050919050565b7f4e487b7100000000000000000000000000000000000000000000000000000000600052602260045260246000fd5b60006002820490506001821680611e1657607f821691505b60208210811415611e2a57611e29611dcf565b5b50919050565b6000611e3b826116a8565b9150611e46836116a8565b9250817fffffffffffffffffffffffffffffffffffffffffffffffffffffffffffffffff0483118215151615611e7f57611e7e611c72565b5b828202905092915050565b7f416d6f756e7420706179656420646f6573206e6f74206d61746368207072696360008201527f65206f662074686520736f6e672e000000000000000000000000000000000000602082015250565b6000611ee6602e836118e3565b9150611ef182611e8a565b604082019050919050565b60006020820190508181036000830152611f1581611ed9565b9050919050565b7f496e73756666696369656e742062616c616e63652e0000000000000000000000600082015250565b6000611f526015836118e3565b9150611f5d82611f1c565b602082019050919050565b60006020820190508181036000830152611f8181611f45565b9050919050565b60008190508160005260206000209050919050565b60008154611faa81611dfe565b611fb481866118e3565b94506001821660008114611fcf5760018114611fe157612014565b60ff1983168652602086019350612014565b611fea85611f88565b60005b8381101561200c57815481890152600182019150602081019050611fed565b808801955050505b50505092915050565b600060808201905061203260008301876116b2565b81810360208301526120448186611927565b905081810360408301526120588185611f9d565b905061206760608301846116b2565b95945050505050565b7f4e6f7420616e206172746973742e000000000000000000000000000000000000600082015250565b60006120a6600e836118e3565b91506120b182612070565b602082019050919050565b600060208201905081810360008301526120d581612099565b9050919050565b60006080820190506120f160008301876116b2565b81810360208301526121038186611927565b905081810360408301526121178185611927565b905061212660608301846116b2565b9594505050505056fea2646970667358221220bffdb32090e9ecff75ca21f662a7a9cfc88192bc7a57e5cc2837410aeef1ddd064736f6c63430008090033",
  "immutableReferences": {},
  "source": "pragma solidity >=0.7.0 <0.9.0;\n\ncontract blockstudio {\n    uint audienceIDTracker;\n    uint artistIDTracker;\n    uint songIDTracker;\n    \n    enum UserType {UNDEFINED, ARTIST, AUDIENCE}\n    \n    struct Artist {\n        string name;\n        uint artistID;\n        uint rating;\n        uint[] songsPublished;\n    }\n    \n    struct Audience {\n        string name;\n        uint audienceID;\n        uint[] songsPurchased;\n        mapping(uint => bool) isSongPurchased;\n    }\n    \n    struct Song {\n        string songName;\n        string artistName;\n        string genre;\n        string hash;\n        uint songID;\n        uint price;\n        address payable artistAddress;\n    }\n    \n    mapping (address => UserType) identifyUser;\n    mapping (address => Artist) allArtists;\n    mapping (address => Audience) allAudience;\n    mapping (uint => Song) allSongs;\n    \n    constructor() {\n        audienceIDTracker = 0;\n        artistIDTracker = 0;\n        songIDTracker = 0;\n    }\n    \n    function getNumSongs() public view returns(uint) {\n        return songIDTracker;\n    }\n\n    function checkUser() public view returns(UserType) {\n        return identifyUser[msg.sender];\n    }\n    \n    function addNewArtist(string memory _name) public {\n        artistIDTracker += 1;\n        \n        Artist memory newArtist;\n        newArtist.name = _name;\n        newArtist.artistID = artistIDTracker;\n        newArtist.rating = 0;\n        \n        allArtists[msg.sender] = newArtist;\n        identifyUser[msg.sender] = UserType.ARTIST;\n    }\n    \n    function addNewAudience(string memory _name) public {\n        audienceIDTracker += 1;\n        \n        Audience storage newAudience = allAudience[msg.sender];\n        newAudience.name = _name;\n        newAudience.audienceID = audienceIDTracker;\n\n        identifyUser[msg.sender] = UserType.AUDIENCE;\n    }\n    \n    function getAudienceDetails() public view returns(string memory, uint, uint[] memory){\n        return (allAudience[msg.sender].name, allAudience[msg.sender].audienceID, allAudience[msg.sender].songsPurchased);\n    }\n    \n    function getArtistDetails() public view returns(string memory, uint, uint, uint[] memory){\n        return (allArtists[msg.sender].name, \n            allArtists[msg.sender].artistID, \n            allArtists[msg.sender].rating, \n            allArtists[msg.sender].songsPublished\n        );   \n    }\n    \n    event songAdded (\n        uint songID,\n        string songName,\n        string artistName,\n        uint price\n    );\n    \n    function addSong(string memory _name, string memory _genre, string memory _hash, uint _price) public {\n        require(identifyUser[msg.sender] == UserType.ARTIST, \"Not an artist.\");\n        \n        songIDTracker += 1;\n        \n        Song memory newSong;\n        newSong.songID = songIDTracker;\n        newSong.songName = _name;\n        newSong.artistName = allArtists[msg.sender].name;\n        newSong.genre = _genre;\n        newSong.hash = _hash;\n        newSong.price = _price;\n        newSong.artistAddress = payable(msg.sender);\n        \n        allSongs[songIDTracker] = newSong;\n        allArtists[msg.sender].songsPublished.push(songIDTracker);\n        \n        emit songAdded(newSong.songID, newSong.songName, newSong.artistName, newSong.price);\n    }\n    \n    event songPurchased (\n        uint songID,\n        string songName,\n        string audienceName,\n        uint price\n    );\n    \n    function buySong(uint _songID) public payable {\n        require(identifyUser[msg.sender] == UserType.AUDIENCE, \"Not an audience member.\");\n        require(!allAudience[msg.sender].isSongPurchased[_songID], \"Cannot buy the song twice.\");\n        \n        Song memory curSong = allSongs[_songID];\n        \n        require(msg.value == (curSong.price * 1 wei), \"Amount payed does not match price of the song.\");\n        require(msg.sender.balance > msg.value, \"Insufficient balance.\");\n\n        curSong.artistAddress.transfer(msg.value);\n        \n        allAudience[msg.sender].songsPurchased.push(_songID);\n        allAudience[msg.sender].isSongPurchased[_songID] = true;\n        \n        emit songPurchased(curSong.songID, curSong.songName, allAudience[msg.sender].name, msg.value);\n    }\n    \n    function getSongDetails(uint _songID) public view returns(string memory, string memory, string memory, string memory, uint){\n        return (allSongs[_songID].songName, \n            allSongs[_songID].artistName, \n            allSongs[_songID].genre, \n            allSongs[_songID].hash,\n            allSongs[_songID].price\n        );\n    }\n    \n}",
  "sourcePath": "/Users/anuneet/Documents/GitHub/blockstudio/App/contracts/blockstudio.sol",
  "compiler": {
    "name": "solc",
    "version": "0.8.9+commit.e5eed63a.Emscripten.clang"
  },
  "schemaVersion": "3.4.3",
  "updatedAt": "2021-12-11T20:17:16.628Z",
  "networkType": "ethereum",
  "devdoc": {
    "kind": "dev",
    "methods": {},
    "version": 1
  },
  "userdoc": {
    "kind": "user",
    "methods": {},
    "version": 1
  }
}