{
  "contractName": "blockstudio",
  "abi": [
    {
      "inputs": [],
      "stateMutability": "nonpayable",
      "type": "constructor"
    },
    {
      "inputs": [],
      "name": "owner",
      "outputs": [
        {
          "internalType": "address",
          "name": "",
          "type": "address"
        }
      ],
      "stateMutability": "view",
      "type": "function",
      "constant": true
    },
    {
      "inputs": [],
      "name": "checkUser",
      "outputs": [
        {
          "internalType": "enum blockstudio.UserType",
          "name": "",
          "type": "uint8"
        }
      ],
      "stateMutability": "view",
      "type": "function",
      "constant": true
    },
    {
      "inputs": [
        {
          "internalType": "string",
          "name": "_name",
          "type": "string"
        }
      ],
      "name": "addNewArtist",
      "outputs": [],
      "stateMutability": "nonpayable",
      "type": "function"
    },
    {
      "inputs": [
        {
          "internalType": "string",
          "name": "_name",
          "type": "string"
        }
      ],
      "name": "addNewAudience",
      "outputs": [],
      "stateMutability": "nonpayable",
      "type": "function"
    },
    {
      "inputs": [],
      "name": "getAudienceDetails",
      "outputs": [
        {
          "internalType": "string",
          "name": "",
          "type": "string"
        },
        {
          "internalType": "uint256",
          "name": "",
          "type": "uint256"
        },
        {
          "internalType": "uint256[]",
          "name": "",
          "type": "uint256[]"
        }
      ],
      "stateMutability": "view",
      "type": "function",
      "constant": true
    },
    {
      "inputs": [],
      "name": "getArtistDetails",
      "outputs": [
        {
          "internalType": "string",
          "name": "",
          "type": "string"
        },
        {
          "internalType": "uint256",
          "name": "",
          "type": "uint256"
        },
        {
          "internalType": "uint256",
          "name": "",
          "type": "uint256"
        },
        {
          "internalType": "uint256[]",
          "name": "",
          "type": "uint256[]"
        }
      ],
      "stateMutability": "view",
      "type": "function",
      "constant": true
    }
  ],
  "bytecode": "0x608060405234801561001057600080fd5b5060008081905550600060018190555033600560006101000a81548173ffffffffffffffffffffffffffffffffffffffff021916908373ffffffffffffffffffffffffffffffffffffffff160217905550611024806100706000396000f3fe608060405234801561001057600080fd5b50600436106100625760003560e01c80631a0cd3431461006757806342490c4b146100835780637f7a45101461009f5780638da5cb5b146100c0578063bddff768146100de578063c1562547146100fe575b600080fd5b610081600480360381019061007c9190610bda565b61011c565b005b61009d60048036038101906100989190610bda565b610288565b005b6100a761040a565b6040516100b79493929190610d82565b60405180910390f35b6100c861068f565b6040516100d59190610e16565b60405180910390f35b6100e66106b5565b6040516100f593929190610e31565b60405180910390f35b6101066108d1565b6040516101139190610eed565b60405180910390f35b600160008082825461012e9190610f37565b9250508190555061013d610947565b8181600001819052506000548160200181815250508060046000600560009054906101000a900473ffffffffffffffffffffffffffffffffffffffff1673ffffffffffffffffffffffffffffffffffffffff1673ffffffffffffffffffffffffffffffffffffffff16815260200190815260200160002060008201518160000190805190602001906101d0929190610968565b506020820151816001015560408201518160020190805190602001906101f79291906109ee565b509050506002806000600560009054906101000a900473ffffffffffffffffffffffffffffffffffffffff1673ffffffffffffffffffffffffffffffffffffffff1673ffffffffffffffffffffffffffffffffffffffff16815260200190815260200160002060006101000a81548160ff0219169083600281111561027f5761027e610e76565b5b02179055505050565b600180600082825461029a9190610f37565b925050819055506102a9610a3b565b81816000018190525060015481602001818152505060008160400181815250508060036000600560009054906101000a900473ffffffffffffffffffffffffffffffffffffffff1673ffffffffffffffffffffffffffffffffffffffff1673ffffffffffffffffffffffffffffffffffffffff1681526020019081526020016000206000820151816000019080519060200190610347929190610968565b50602082015181600101556040820151816002015560608201518160030190805190602001906103789291906109ee565b50905050600160026000600560009054906101000a900473ffffffffffffffffffffffffffffffffffffffff1673ffffffffffffffffffffffffffffffffffffffff1673ffffffffffffffffffffffffffffffffffffffff16815260200190815260200160002060006101000a81548160ff0219169083600281111561040157610400610e76565b5b02179055505050565b6060600080606060036000600560009054906101000a900473ffffffffffffffffffffffffffffffffffffffff1673ffffffffffffffffffffffffffffffffffffffff1673ffffffffffffffffffffffffffffffffffffffff16815260200190815260200160002060000160036000600560009054906101000a900473ffffffffffffffffffffffffffffffffffffffff1673ffffffffffffffffffffffffffffffffffffffff1673ffffffffffffffffffffffffffffffffffffffff1681526020019081526020016000206001015460036000600560009054906101000a900473ffffffffffffffffffffffffffffffffffffffff1673ffffffffffffffffffffffffffffffffffffffff1673ffffffffffffffffffffffffffffffffffffffff1681526020019081526020016000206002015460036000600560009054906101000a900473ffffffffffffffffffffffffffffffffffffffff1673ffffffffffffffffffffffffffffffffffffffff1673ffffffffffffffffffffffffffffffffffffffff1681526020019081526020016000206003018380546105af90610fbc565b80601f01602080910402602001604051908101604052809291908181526020018280546105db90610fbc565b80156106285780601f106105fd57610100808354040283529160200191610628565b820191906000526020600020905b81548152906001019060200180831161060b57829003601f168201915b505050505093508080548060200260200160405190810160405280929190818152602001828054801561067a57602002820191906000526020600020905b815481526020019060010190808311610666575b50505050509050935093509350935090919293565b600560009054906101000a900473ffffffffffffffffffffffffffffffffffffffff1681565b60606000606060046000600560009054906101000a900473ffffffffffffffffffffffffffffffffffffffff1673ffffffffffffffffffffffffffffffffffffffff1673ffffffffffffffffffffffffffffffffffffffff16815260200190815260200160002060000160046000600560009054906101000a900473ffffffffffffffffffffffffffffffffffffffff1673ffffffffffffffffffffffffffffffffffffffff1673ffffffffffffffffffffffffffffffffffffffff1681526020019081526020016000206001015460046000600560009054906101000a900473ffffffffffffffffffffffffffffffffffffffff1673ffffffffffffffffffffffffffffffffffffffff1673ffffffffffffffffffffffffffffffffffffffff1681526020019081526020016000206002018280546107f490610fbc565b80601f016020809104026020016040519081016040528092919081815260200182805461082090610fbc565b801561086d5780601f106108425761010080835404028352916020019161086d565b820191906000526020600020905b81548152906001019060200180831161085057829003601f168201915b50505050509250808054806020026020016040519081016040528092919081815260200182805480156108bf57602002820191906000526020600020905b8154815260200190600101908083116108ab575b50505050509050925092509250909192565b600060026000600560009054906101000a900473ffffffffffffffffffffffffffffffffffffffff1673ffffffffffffffffffffffffffffffffffffffff1673ffffffffffffffffffffffffffffffffffffffff16815260200190815260200160002060009054906101000a900460ff16905090565b60405180606001604052806060815260200160008152602001606081525090565b82805461097490610fbc565b90600052602060002090601f01602090048101928261099657600085556109dd565b82601f106109af57805160ff19168380011785556109dd565b828001600101855582156109dd579182015b828111156109dc5782518255916020019190600101906109c1565b5b5090506109ea9190610a63565b5090565b828054828255906000526020600020908101928215610a2a579160200282015b82811115610a29578251825591602001919060010190610a0e565b5b509050610a379190610a63565b5090565b6040518060800160405280606081526020016000815260200160008152602001606081525090565b5b80821115610a7c576000816000905550600101610a64565b5090565b6000604051905090565b600080fd5b600080fd5b600080fd5b600080fd5b6000601f19601f8301169050919050565b7f4e487b7100000000000000000000000000000000000000000000000000000000600052604160045260246000fd5b610ae782610a9e565b810181811067ffffffffffffffff82111715610b0657610b05610aaf565b5b80604052505050565b6000610b19610a80565b9050610b258282610ade565b919050565b600067ffffffffffffffff821115610b4557610b44610aaf565b5b610b4e82610a9e565b9050602081019050919050565b82818337600083830152505050565b6000610b7d610b7884610b2a565b610b0f565b905082815260208101848484011115610b9957610b98610a99565b5b610ba4848285610b5b565b509392505050565b600082601f830112610bc157610bc0610a94565b5b8135610bd1848260208601610b6a565b91505092915050565b600060208284031215610bf057610bef610a8a565b5b600082013567ffffffffffffffff811115610c0e57610c0d610a8f565b5b610c1a84828501610bac565b91505092915050565b600081519050919050565b600082825260208201905092915050565b60005b83811015610c5d578082015181840152602081019050610c42565b83811115610c6c576000848401525b50505050565b6000610c7d82610c23565b610c878185610c2e565b9350610c97818560208601610c3f565b610ca081610a9e565b840191505092915050565b6000819050919050565b610cbe81610cab565b82525050565b600081519050919050565b600082825260208201905092915050565b6000819050602082019050919050565b610cf981610cab565b82525050565b6000610d0b8383610cf0565b60208301905092915050565b6000602082019050919050565b6000610d2f82610cc4565b610d398185610ccf565b9350610d4483610ce0565b8060005b83811015610d75578151610d5c8882610cff565b9750610d6783610d17565b925050600181019050610d48565b5085935050505092915050565b60006080820190508181036000830152610d9c8187610c72565b9050610dab6020830186610cb5565b610db86040830185610cb5565b8181036060830152610dca8184610d24565b905095945050505050565b600073ffffffffffffffffffffffffffffffffffffffff82169050919050565b6000610e0082610dd5565b9050919050565b610e1081610df5565b82525050565b6000602082019050610e2b6000830184610e07565b92915050565b60006060820190508181036000830152610e4b8186610c72565b9050610e5a6020830185610cb5565b8181036040830152610e6c8184610d24565b9050949350505050565b7f4e487b7100000000000000000000000000000000000000000000000000000000600052602160045260246000fd5b60038110610eb657610eb5610e76565b5b50565b6000819050610ec782610ea5565b919050565b6000610ed782610eb9565b9050919050565b610ee781610ecc565b82525050565b6000602082019050610f026000830184610ede565b92915050565b7f4e487b7100000000000000000000000000000000000000000000000000000000600052601160045260246000fd5b6000610f4282610cab565b9150610f4d83610cab565b9250827fffffffffffffffffffffffffffffffffffffffffffffffffffffffffffffffff03821115610f8257610f81610f08565b5b828201905092915050565b7f4e487b7100000000000000000000000000000000000000000000000000000000600052602260045260246000fd5b60006002820490506001821680610fd457607f821691505b60208210811415610fe857610fe7610f8d565b5b5091905056fea2646970667358221220972159c54261c691d9434b620bdd42c7d27753acbf8070ddd647aefef79ae19664736f6c63430008090033",
  "immutableReferences": {},
  "source": "pragma solidity >=0.7.0 <0.9.0;\n\ncontract blockstudio {\n    uint256 audienceIDTracker;\n    uint256 artistIDTracker;\n\n    enum UserType {\n        UNDEFINED,\n        ARTIST,\n        AUDIENCE\n    }\n\n    struct Artist {\n        string name;\n        uint256 ArtistID;\n        uint256 rating;\n        uint256[] songsPublished;\n    }\n\n    struct Audience {\n        string name;\n        uint256 AudienceID;\n        uint256[] songsPurchased;\n    }\n\n    mapping(address => UserType) identifyUser;\n    mapping(address => Artist) allArtists;\n    mapping(address => Audience) allAudience;\n\n    address public owner;\n\n    constructor() {\n        audienceIDTracker = 0;\n        artistIDTracker = 0;\n        owner = msg.sender;\n    }\n\n    function checkUser() external view returns (UserType) {\n        return identifyUser[owner];\n    }\n\n    function addNewArtist(string memory _name) public {\n        artistIDTracker += 1;\n\n        Artist memory newArtist;\n        newArtist.name = _name;\n        newArtist.ArtistID = artistIDTracker;\n        newArtist.rating = 0;\n\n        allArtists[owner] = newArtist;\n        identifyUser[owner] = UserType.ARTIST;\n    }\n\n    function addNewAudience(string memory _name) public {\n        audienceIDTracker += 1;\n\n        Audience memory newAudience;\n        newAudience.name = _name;\n        newAudience.AudienceID = audienceIDTracker;\n\n        allAudience[owner] = newAudience;\n        identifyUser[owner] = UserType.AUDIENCE;\n    }\n\n    function getAudienceDetails()\n        public\n        view\n        returns (\n            string memory,\n            uint256,\n            uint256[] memory\n        )\n    {\n        return (\n            allAudience[owner].name,\n            allAudience[owner].AudienceID,\n            allAudience[owner].songsPurchased\n        );\n    }\n\n    function getArtistDetails()\n        public\n        view\n        returns (\n            string memory,\n            uint256,\n            uint256,\n            uint256[] memory\n        )\n    {\n        return (\n            allArtists[owner].name,\n            allArtists[owner].ArtistID,\n            allArtists[owner].rating,\n            allArtists[owner].songsPublished\n        );\n    }\n}\n\n// contract User {\n//     address walletID;\n//     string public name;\n//     bool newUser;\n\n//     // constructor() public (){\n\n//     // }\n\n//     // function buyToken() {\n\n//     // }\n\n// }\n\n// contract Artist is User {\n//     uint ArtistID;\n//     uint public rating;\n//     uint[] songsPublished;\n\n//     // function addSong() {\n\n//     // }\n// }\n\n// contract Audience is User {\n//     uint AudienceID;\n//     uint[] songsPurchased;\n\n//     // function buySong(uint SongID) {\n\n//     // }\n\n//     // function sponserArtist(uint ArtistID) {\n\n//     // }\n// }\n\n// contract Song {\n//     uint public SongID;\n//     string public name;\n//     uint public ArtistID;\n//     string public genre;\n//     uint public releaseDate;\n//     uint cost;\n\n// }\n",
  "sourcePath": "/Users/anuneet/Documents/GitHub/blockstudio/App/contracts/blockstudio.sol",
  "compiler": {
    "name": "solc",
    "version": "0.8.9+commit.e5eed63a.Emscripten.clang"
  },
  "schemaVersion": "3.4.3",
  "updatedAt": "2021-11-02T10:07:33.292Z",
  "networkType": "ethereum",
  "devdoc": {
    "kind": "dev",
    "methods": {},
    "version": 1
  },
  "userdoc": {
    "kind": "user",
    "methods": {},
    "version": 1
  }
}